{
  "contractName": "DMV",
  "abi": [
    {
      "inputs": [],
      "payable": false,
      "stateMutability": "nonpayable",
      "type": "constructor"
    },
    {
      "constant": true,
      "inputs": [],
      "name": "buyer",
      "outputs": [
        {
          "internalType": "address payable",
          "name": "",
          "type": "address"
        }
      ],
      "payable": false,
      "stateMutability": "view",
      "type": "function"
    },
    {
      "constant": true,
      "inputs": [
        {
          "internalType": "address",
          "name": "",
          "type": "address"
        }
      ],
      "name": "userAddress",
      "outputs": [
        {
          "internalType": "string",
          "name": "custName",
          "type": "string"
        },
        {
          "internalType": "string",
          "name": "street",
          "type": "string"
        },
        {
          "internalType": "string",
          "name": "city",
          "type": "string"
        },
        {
          "internalType": "string",
          "name": "state",
          "type": "string"
        },
        {
          "internalType": "string",
          "name": "phone",
          "type": "string"
        }
      ],
      "payable": false,
      "stateMutability": "view",
      "type": "function"
    },
    {
      "constant": true,
      "inputs": [
        {
          "internalType": "address",
          "name": "",
          "type": "address"
        }
      ],
      "name": "userPurchase",
      "outputs": [
        {
          "internalType": "uint256",
          "name": "purse",
          "type": "uint256"
        },
        {
          "internalType": "uint256",
          "name": "scionRenewCount",
          "type": "uint256"
        },
        {
          "internalType": "uint256",
          "name": "civicRenewCount",
          "type": "uint256"
        },
        {
          "internalType": "uint256",
          "name": "viperRenewCount",
          "type": "uint256"
        },
        {
          "internalType": "uint256",
          "name": "ferrariRenewCount",
          "type": "uint256"
        }
      ],
      "payable": false,
      "stateMutability": "view",
      "type": "function"
    },
    {
      "constant": true,
      "inputs": [
        {
          "internalType": "uint256",
          "name": "",
          "type": "uint256"
        }
      ],
      "name": "vehicles",
      "outputs": [
        {
          "internalType": "uint256",
          "name": "id",
          "type": "uint256"
        },
        {
          "internalType": "string",
          "name": "name",
          "type": "string"
        },
        {
          "internalType": "uint256",
          "name": "cost",
          "type": "uint256"
        }
      ],
      "payable": false,
      "stateMutability": "view",
      "type": "function"
    },
    {
      "constant": true,
      "inputs": [],
      "name": "getGlobalPrice",
      "outputs": [
        {
          "internalType": "uint256",
          "name": "",
          "type": "uint256"
        }
      ],
      "payable": false,
      "stateMutability": "view",
      "type": "function"
    },
    {
      "constant": false,
      "inputs": [
        {
          "internalType": "uint256",
          "name": "_price",
          "type": "uint256"
        }
      ],
      "name": "setGlobalPrice",
      "outputs": [],
      "payable": false,
      "stateMutability": "nonpayable",
      "type": "function"
    },
    {
      "constant": false,
      "inputs": [],
      "name": "deposit",
      "outputs": [
        {
          "internalType": "uint256",
          "name": "",
          "type": "uint256"
        },
        {
          "internalType": "uint256",
          "name": "",
          "type": "uint256"
        }
      ],
      "payable": true,
      "stateMutability": "payable",
      "type": "function"
    },
    {
      "constant": false,
      "inputs": [
        {
          "internalType": "string",
          "name": "_custName",
          "type": "string"
        },
        {
          "internalType": "string",
          "name": "_street",
          "type": "string"
        },
        {
          "internalType": "string",
          "name": "_city",
          "type": "string"
        },
        {
          "internalType": "string",
          "name": "_state",
          "type": "string"
        },
        {
          "internalType": "string",
          "name": "_phone",
          "type": "string"
        }
      ],
      "name": "updateUserAddress",
      "outputs": [],
      "payable": false,
      "stateMutability": "nonpayable",
      "type": "function"
    },
    {
      "constant": false,
      "inputs": [
        {
          "internalType": "uint256",
          "name": "vehicleID",
          "type": "uint256"
        },
        {
          "internalType": "uint256",
          "name": "_count",
          "type": "uint256"
        }
      ],
      "name": "select",
      "outputs": [
        {
          "internalType": "bool",
          "name": "",
          "type": "bool"
        }
      ],
      "payable": true,
      "stateMutability": "payable",
      "type": "function"
    },
    {
      "constant": false,
      "inputs": [
        {
          "internalType": "uint256",
          "name": "vehicleID",
          "type": "uint256"
        }
      ],
      "name": "sellVehicle",
      "outputs": [
        {
          "internalType": "bool",
          "name": "",
          "type": "bool"
        }
      ],
      "payable": true,
      "stateMutability": "payable",
      "type": "function"
    },
    {
      "constant": false,
      "inputs": [],
      "name": "coinReturn",
      "outputs": [],
      "payable": true,
      "stateMutability": "payable",
      "type": "function"
    },
    {
      "constant": true,
      "inputs": [],
      "name": "getRegCounts",
      "outputs": [
        {
          "internalType": "uint256",
          "name": "",
          "type": "uint256"
        },
        {
          "internalType": "uint256",
          "name": "",
          "type": "uint256"
        },
        {
          "internalType": "uint256",
          "name": "",
          "type": "uint256"
        },
        {
          "internalType": "uint256",
          "name": "",
          "type": "uint256"
        }
      ],
      "payable": false,
      "stateMutability": "view",
      "type": "function"
    }
  ],
  "bytecode": "0x608060405260006002553480156200001657600080fd5b5066038d7ea4c68000600181905550336000806101000a81548173ffffffffffffffffffffffffffffffffffffffff021916908373ffffffffffffffffffffffffffffffffffffffff160217905550620000ab6040518060400160405280600581526020017f5363696f6e0000000000000000000000000000000000000000000000000000008152506200018360201b60201c565b620000f16040518060400160405280600581526020017f43697669630000000000000000000000000000000000000000000000000000008152506200018360201b60201c565b620001376040518060400160405280600581526020017f56697065720000000000000000000000000000000000000000000000000000008152506200018360201b60201c565b6200017d6040518060400160405280600781526020017f46657272617269000000000000000000000000000000000000000000000000008152506200018360201b60201c565b620002b1565b60026000815480929190600101919050555060405180606001604052806002548152602001828152602001600154815250600360006002548152602001908152602001600020600082015181600001556020820151816001019080519060200190620001f192919062000202565b506040820151816002015590505050565b828054600181600116156101000203166002900490600052602060002090601f016020900481019282601f106200024557805160ff191683800117855562000276565b8280016001018555821562000276579182015b828111156200027557825182559160200191906001019062000258565b5b50905062000285919062000289565b5090565b620002ae91905b80821115620002aa57600081600090555060010162000290565b5090565b90565b611e4a80620002c16000396000f3fe6080604052600436106100a75760003560e01c80637150d8ae116100645780637150d8ae1461041c578063b484eff714610473578063b8ba95fa146104f4578063b9316f97146105b6578063bb9aca66146108da578063d0e30db01461092a576100a7565b80630fe600d9146100ac578063134b9cf9146100b65780632e1b5728146100fc578063360500cc1461013757806339b6357f146103b15780635244ed71146103f1575b600080fd5b6100b461094f565b005b6100e2600480360360208110156100cc57600080fd5b8101908080359060200190929190505050610c09565b604051808215151515815260200191505060405180910390f35b34801561010857600080fd5b506101356004803603602081101561011f57600080fd5b8101908080359060200190929190505050610f43565b005b34801561014357600080fd5b506101866004803603602081101561015a57600080fd5b81019080803573ffffffffffffffffffffffffffffffffffffffff169060200190929190505050610f55565b60405180806020018060200180602001806020018060200186810386528b818151815260200191508051906020019080838360005b838110156101d65780820151818401526020810190506101bb565b50505050905090810190601f1680156102035780820380516001836020036101000a031916815260200191505b5086810385528a818151815260200191508051906020019080838360005b8381101561023c578082015181840152602081019050610221565b50505050905090810190601f1680156102695780820380516001836020036101000a031916815260200191505b50868103845289818151815260200191508051906020019080838360005b838110156102a2578082015181840152602081019050610287565b50505050905090810190601f1680156102cf5780820380516001836020036101000a031916815260200191505b50868103835288818151815260200191508051906020019080838360005b838110156103085780820151818401526020810190506102ed565b50505050905090810190601f1680156103355780820380516001836020036101000a031916815260200191505b50868103825287818151815260200191508051906020019080838360005b8381101561036e578082015181840152602081019050610353565b50505050905090810190601f16801561039b5780820380516001836020036101000a031916815260200191505b509a505050505050505050505060405180910390f35b3480156103bd57600080fd5b506103c6611283565b6040518085815260200184815260200183815260200182815260200194505050505060405180910390f35b3480156103fd57600080fd5b50610406611427565b6040518082815260200191505060405180910390f35b34801561042857600080fd5b50610431611431565b604051808273ffffffffffffffffffffffffffffffffffffffff1673ffffffffffffffffffffffffffffffffffffffff16815260200191505060405180910390f35b34801561047f57600080fd5b506104c26004803603602081101561049657600080fd5b81019080803573ffffffffffffffffffffffffffffffffffffffff169060200190929190505050611456565b604051808681526020018581526020018481526020018381526020018281526020019550505050505060405180910390f35b34801561050057600080fd5b5061052d6004803603602081101561051757600080fd5b810190808035906020019092919050505061148c565b6040518084815260200180602001838152602001828103825284818151815260200191508051906020019080838360005b8381101561057957808201518184015260208101905061055e565b50505050905090810190601f1680156105a65780820380516001836020036101000a031916815260200191505b5094505050505060405180910390f35b3480156105c257600080fd5b506108d8600480360360a08110156105d957600080fd5b81019080803590602001906401000000008111156105f657600080fd5b82018360208201111561060857600080fd5b8035906020019184600183028401116401000000008311171561062a57600080fd5b91908080601f016020809104026020016040519081016040528093929190818152602001838380828437600081840152601f19601f8201169050808301925050505050505091929192908035906020019064010000000081111561068d57600080fd5b82018360208201111561069f57600080fd5b803590602001918460018302840111640100000000831117156106c157600080fd5b91908080601f016020809104026020016040519081016040528093929190818152602001838380828437600081840152601f19601f8201169050808301925050505050505091929192908035906020019064010000000081111561072457600080fd5b82018360208201111561073657600080fd5b8035906020019184600183028401116401000000008311171561075857600080fd5b91908080601f016020809104026020016040519081016040528093929190818152602001838380828437600081840152601f19601f820116905080830192505050505050509192919290803590602001906401000000008111156107bb57600080fd5b8201836020820111156107cd57600080fd5b803590602001918460018302840111640100000000831117156107ef57600080fd5b91908080601f016020809104026020016040519081016040528093929190818152602001838380828437600081840152601f19601f8201169050808301925050505050505091929192908035906020019064010000000081111561085257600080fd5b82018360208201111561086457600080fd5b8035906020019184600183028401116401000000008311171561088657600080fd5b91908080601f016020809104026020016040519081016040528093929190818152602001838380828437600081840152601f19601f82011690508083019250505050505050919291929050505061154e565b005b610910600480360360408110156108f057600080fd5b810190808035906020019092919080359060200190929190505050611708565b604051808215151515815260200191505060405180910390f35b610932611ae9565b604051808381526020018281526020019250505060405180910390f35b336000806101000a81548173ffffffffffffffffffffffffffffffffffffffff021916908373ffffffffffffffffffffffffffffffffffffffff1602179055506000600460008060009054906101000a900473ffffffffffffffffffffffffffffffffffffffff1673ffffffffffffffffffffffffffffffffffffffff1673ffffffffffffffffffffffffffffffffffffffff1681526020019081526020016000206000015411610a68576040517f08c379a00000000000000000000000000000000000000000000000000000000081526004018080602001828103825260198152602001807f4572726f723a204e6f2066756e647320746f2072657475726e0000000000000081525060200191505060405180910390fd5b6000809054906101000a900473ffffffffffffffffffffffffffffffffffffffff1673ffffffffffffffffffffffffffffffffffffffff166108fc600460008060009054906101000a900473ffffffffffffffffffffffffffffffffffffffff1673ffffffffffffffffffffffffffffffffffffffff1673ffffffffffffffffffffffffffffffffffffffff168152602001908152602001600020600001549081150290604051600060405180830381858888f19350505050158015610b32573d6000803e3d6000fd5b50600460008060009054906101000a900473ffffffffffffffffffffffffffffffffffffffff1673ffffffffffffffffffffffffffffffffffffffff1673ffffffffffffffffffffffffffffffffffffffff16815260200190815260200160002060000154600460008060009054906101000a900473ffffffffffffffffffffffffffffffffffffffff1673ffffffffffffffffffffffffffffffffffffffff1673ffffffffffffffffffffffffffffffffffffffff16815260200190815260200160002060000160008282540392505081905550565b6000336000806101000a81548173ffffffffffffffffffffffffffffffffffffffff021916908373ffffffffffffffffffffffffffffffffffffffff1602179055506003600083815260200190815260200160002060020154600460008060009054906101000a900473ffffffffffffffffffffffffffffffffffffffff1673ffffffffffffffffffffffffffffffffffffffff1673ffffffffffffffffffffffffffffffffffffffff168152602001908152602001600020600001541015610d3a576040517f08c379a00000000000000000000000000000000000000000000000000000000081526004018080602001828103825260198152602001807f4572726f723a20496e73756666696369656e742046756e64730000000000000081525060200191505060405180910390fd5b6000600360008481526020019081526020016000206002015490506001831415610dcc576000600460008060009054906101000a900473ffffffffffffffffffffffffffffffffffffffff1673ffffffffffffffffffffffffffffffffffffffff1673ffffffffffffffffffffffffffffffffffffffff16815260200190815260200160002060010181905550610f30565b6002831415610e43576000600460008060009054906101000a900473ffffffffffffffffffffffffffffffffffffffff1673ffffffffffffffffffffffffffffffffffffffff1673ffffffffffffffffffffffffffffffffffffffff16815260200190815260200160002060020181905550610f2f565b6003831415610eba576000600460008060009054906101000a900473ffffffffffffffffffffffffffffffffffffffff1673ffffffffffffffffffffffffffffffffffffffff1673ffffffffffffffffffffffffffffffffffffffff16815260200190815260200160002060030181905550610f2e565b6004831415610f2d576000600460008060009054906101000a900473ffffffffffffffffffffffffffffffffffffffff1673ffffffffffffffffffffffffffffffffffffffff1673ffffffffffffffffffffffffffffffffffffffff168152602001908152602001600020600401819055505b5b5b5b610f3981611c82565b6001915050919050565b80600181905550610f52611cf6565b50565b6005602052806000526040600020600091509050806000018054600181600116156101000203166002900480601f0160208091040260200160405190810160405280929190818152602001828054600181600116156101000203166002900480156110015780601f10610fd657610100808354040283529160200191611001565b820191906000526020600020905b815481529060010190602001808311610fe457829003601f168201915b505050505090806001018054600181600116156101000203166002900480601f01602080910402602001604051908101604052809291908181526020018280546001816001161561010002031660029004801561109f5780601f106110745761010080835404028352916020019161109f565b820191906000526020600020905b81548152906001019060200180831161108257829003601f168201915b505050505090806002018054600181600116156101000203166002900480601f01602080910402602001604051908101604052809291908181526020018280546001816001161561010002031660029004801561113d5780601f106111125761010080835404028352916020019161113d565b820191906000526020600020905b81548152906001019060200180831161112057829003601f168201915b505050505090806003018054600181600116156101000203166002900480601f0160208091040260200160405190810160405280929190818152602001828054600181600116156101000203166002900480156111db5780601f106111b0576101008083540402835291602001916111db565b820191906000526020600020905b8154815290600101906020018083116111be57829003601f168201915b505050505090806004018054600181600116156101000203166002900480601f0160208091040260200160405190810160405280929190818152602001828054600181600116156101000203166002900480156112795780601f1061124e57610100808354040283529160200191611279565b820191906000526020600020905b81548152906001019060200180831161125c57829003601f168201915b5050505050905085565b600080600080600460008060009054906101000a900473ffffffffffffffffffffffffffffffffffffffff1673ffffffffffffffffffffffffffffffffffffffff1673ffffffffffffffffffffffffffffffffffffffff16815260200190815260200160002060010154600460008060009054906101000a900473ffffffffffffffffffffffffffffffffffffffff1673ffffffffffffffffffffffffffffffffffffffff1673ffffffffffffffffffffffffffffffffffffffff16815260200190815260200160002060020154600460008060009054906101000a900473ffffffffffffffffffffffffffffffffffffffff1673ffffffffffffffffffffffffffffffffffffffff1673ffffffffffffffffffffffffffffffffffffffff16815260200190815260200160002060030154600460008060009054906101000a900473ffffffffffffffffffffffffffffffffffffffff1673ffffffffffffffffffffffffffffffffffffffff1673ffffffffffffffffffffffffffffffffffffffff16815260200190815260200160002060040154935093509350935090919293565b6000600154905090565b6000809054906101000a900473ffffffffffffffffffffffffffffffffffffffff1681565b60046020528060005260406000206000915090508060000154908060010154908060020154908060030154908060040154905085565b6003602052806000526040600020600091509050806000015490806001018054600181600116156101000203166002900480601f01602080910402602001604051908101604052809291908181526020018280546001816001161561010002031660029004801561153e5780601f106115135761010080835404028352916020019161153e565b820191906000526020600020905b81548152906001019060200180831161152157829003601f168201915b5050505050908060020154905083565b84600560003373ffffffffffffffffffffffffffffffffffffffff1673ffffffffffffffffffffffffffffffffffffffff16815260200190815260200160002060000190805190602001906115a4929190611d70565b5083600560003373ffffffffffffffffffffffffffffffffffffffff1673ffffffffffffffffffffffffffffffffffffffff16815260200190815260200160002060010190805190602001906115fb929190611d70565b5082600560003373ffffffffffffffffffffffffffffffffffffffff1673ffffffffffffffffffffffffffffffffffffffff1681526020019081526020016000206002019080519060200190611652929190611d70565b5081600560003373ffffffffffffffffffffffffffffffffffffffff1673ffffffffffffffffffffffffffffffffffffffff16815260200190815260200160002060030190805190602001906116a9929190611d70565b5080600560003373ffffffffffffffffffffffffffffffffffffffff1673ffffffffffffffffffffffffffffffffffffffff1681526020019081526020016000206004019080519060200190611700929190611d70565b505050505050565b6000336000806101000a81548173ffffffffffffffffffffffffffffffffffffffff021916908373ffffffffffffffffffffffffffffffffffffffff16021790555060036000848152602001908152602001600020600201548202600460008060009054906101000a900473ffffffffffffffffffffffffffffffffffffffff1673ffffffffffffffffffffffffffffffffffffffff1673ffffffffffffffffffffffffffffffffffffffff16815260200190815260200160002060000154101561183b576040517f08c379a00000000000000000000000000000000000000000000000000000000081526004018080602001828103825260198152602001807f4572726f723a20496e73756666696369656e742046756e64730000000000000081525060200191505060405180910390fd5b60008311801561184b5750600583105b6118bd576040517f08c379a00000000000000000000000000000000000000000000000000000000081526004018080602001828103825260188152602001807f4572726f723a20496e76616c69642053656c656374696f6e000000000000000081525060200191505060405180910390fd5b600060036000858152602001908152602001600020600201548302905060018414156119595782600460008060009054906101000a900473ffffffffffffffffffffffffffffffffffffffff1673ffffffffffffffffffffffffffffffffffffffff1673ffffffffffffffffffffffffffffffffffffffff16815260200190815260200160002060010160008282540192505081905550611ad5565b60028414156119d85782600460008060009054906101000a900473ffffffffffffffffffffffffffffffffffffffff1673ffffffffffffffffffffffffffffffffffffffff1673ffffffffffffffffffffffffffffffffffffffff16815260200190815260200160002060020160008282540192505081905550611ad4565b6003841415611a575782600460008060009054906101000a900473ffffffffffffffffffffffffffffffffffffffff1673ffffffffffffffffffffffffffffffffffffffff1673ffffffffffffffffffffffffffffffffffffffff16815260200190815260200160002060030160008282540192505081905550611ad3565b6004841415611ad25782600460008060009054906101000a900473ffffffffffffffffffffffffffffffffffffffff1673ffffffffffffffffffffffffffffffffffffffff1673ffffffffffffffffffffffffffffffffffffffff168152602001908152602001600020600401600082825401925050819055505b5b5b5b611ade81611c82565b600191505092915050565b600080600154341015611b64576040517f08c379a00000000000000000000000000000000000000000000000000000000081526004018080602001828103825260058152602001807f4572726f7200000000000000000000000000000000000000000000000000000081525060200191505060405180910390fd5b336000806101000a81548173ffffffffffffffffffffffffffffffffffffffff021916908373ffffffffffffffffffffffffffffffffffffffff16021790555034600460008060009054906101000a900473ffffffffffffffffffffffffffffffffffffffff1673ffffffffffffffffffffffffffffffffffffffff1673ffffffffffffffffffffffffffffffffffffffff1681526020019081526020016000206000016000828254019250508190555047600460008060009054906101000a900473ffffffffffffffffffffffffffffffffffffffff1673ffffffffffffffffffffffffffffffffffffffff1673ffffffffffffffffffffffffffffffffffffffff16815260200190815260200160002060000154915091509091565b80600460008060009054906101000a900473ffffffffffffffffffffffffffffffffffffffff1673ffffffffffffffffffffffffffffffffffffffff1673ffffffffffffffffffffffffffffffffffffffff1681526020019081526020016000206000016000828254039250508190555050565b600154600360006001815260200190815260200160002060020181905550600154600360006002815260200190815260200160002060020181905550600154600360006003815260200190815260200160002060020181905550600154600360006004815260200190815260200160002060020181905550565b828054600181600116156101000203166002900490600052602060002090601f016020900481019282601f10611db157805160ff1916838001178555611ddf565b82800160010185558215611ddf579182015b82811115611dde578251825591602001919060010190611dc3565b5b509050611dec9190611df0565b5090565b611e1291905b80821115611e0e576000816000905550600101611df6565b5090565b9056fea265627a7a72315820c7329456e0ed6b39f5bdacd90598e3d0fe46eb59a1ee47df7e08b37516d0d11464736f6c63430005100032",
  "source": "pragma solidity >=0.4.22 <0.6.0;\r\n\r\ncontract DMV {\r\n    address payable public buyer;\r\n    uint256 globalPrice;\r\n\r\n    struct Vehicles {\r\n        uint256 id;\r\n        string name;\r\n        uint256 cost;\r\n    }\r\n    struct Purchases {\r\n        uint256 purse;\r\n        uint256 scionRenewCount;\r\n        uint256 civicRenewCount;\r\n        uint256 viperRenewCount;\r\n        uint256 ferrariRenewCount;\r\n    }\r\n    struct AddressDetails{\r\n        string custName;\r\n        string street;\r\n        string city;\r\n        string state;\r\n        string phone;\r\n    }\r\n    uint256 numVehicleRegistrations = 0;\r\n    mapping(uint256 => Vehicles) public vehicles;\r\n    mapping(address => Purchases) public userPurchase;\r\n    mapping(address => AddressDetails) public userAddress;\r\n\r\n    constructor() public {\r\n        globalPrice = 1000000000000000; // 0.001 Eth\r\n        buyer = msg.sender;\r\n        addVehicle(\"Scion\");\r\n        addVehicle(\"Civic\");\r\n        addVehicle(\"Viper\");\r\n        addVehicle(\"Ferrari\");\r\n    }\r\n\r\n    function addVehicle(string memory _name) private {\r\n        numVehicleRegistrations++;\r\n        vehicles[numVehicleRegistrations] = Vehicles(\r\n            numVehicleRegistrations,\r\n            _name,\r\n            globalPrice\r\n        );\r\n    }\r\n\r\n    function getGlobalPrice() public view returns (uint256) {\r\n        return globalPrice;\r\n    }\r\n\r\n    function setGlobalPrice(uint256 _price) public {\r\n        globalPrice = _price;\r\n        setVehicleRegCost();\r\n    }\r\n\r\n    function setVehicleRegCost() private {\r\n        vehicles[1].cost = globalPrice;\r\n        vehicles[2].cost = globalPrice;\r\n        vehicles[3].cost = globalPrice;\r\n        vehicles[4].cost = globalPrice;\r\n    }\r\n\r\n    function deposit() public payable returns (uint256, uint256) {\r\n        require(msg.value >= globalPrice, \"Error\");\r\n        buyer = msg.sender;\r\n        userPurchase[buyer].purse += msg.value;\r\n        return (address(this).balance, userPurchase[buyer].purse);\r\n    }\r\n\r\n    function updateUserBalance(uint256 _totalCost) private {\r\n        userPurchase[buyer].purse -= _totalCost;\r\n    }\r\n\r\n    function updateUserAddress(string memory _custName, string memory _street, string memory _city, string memory _state, string memory _phone) public {\r\n        userAddress[msg.sender].custName = _custName;\r\n        userAddress[msg.sender].street = _street;\r\n        userAddress[msg.sender].city = _city;\r\n        userAddress[msg.sender].state = _state;\r\n        userAddress[msg.sender].phone = _phone;\r\n    }\r\n\r\n    function select(uint256 vehicleID, uint256 _count)\r\n        public\r\n        payable\r\n        returns (bool)\r\n    {\r\n        buyer = msg.sender;\r\n\r\n        //Check balance is enough to cover purchase\r\n        require(\r\n            userPurchase[buyer].purse >= (_count * vehicles[vehicleID].cost),\r\n            \"Error: Insufficient Funds\"\r\n        );\r\n\r\n        require((vehicleID > 0 && vehicleID < 5), \"Error: Invalid Selection\");\r\n\r\n        uint256 totalCost = _count * vehicles[vehicleID].cost;\r\n\r\n        if (vehicleID == 1) {\r\n            userPurchase[buyer].scionRenewCount += _count;\r\n        } else if (vehicleID == 2) {\r\n            userPurchase[buyer].civicRenewCount += _count;\r\n        } else if (vehicleID == 3) {\r\n            userPurchase[buyer].viperRenewCount += _count;\r\n        } else if (vehicleID == 4) {\r\n            userPurchase[buyer].ferrariRenewCount += _count;\r\n        }\r\n        updateUserBalance(totalCost);\r\n        return true;\r\n    }\r\n\r\n       function sellVehicle(uint256 vehicleID)\r\n        public\r\n        payable\r\n        returns (bool)\r\n    {\r\n        buyer = msg.sender;\r\n        require(\r\n            userPurchase[buyer].purse >= (vehicles[vehicleID].cost),\r\n            \"Error: Insufficient Funds\"\r\n        );\r\n\r\n        uint256 totalCost = vehicles[vehicleID].cost;\r\n\r\n        if (vehicleID == 1) {\r\n            userPurchase[buyer].scionRenewCount = 0;\r\n        } else if (vehicleID == 2) {\r\n            userPurchase[buyer].civicRenewCount = 0;\r\n        } else if (vehicleID == 3) {\r\n            userPurchase[buyer].viperRenewCount = 0;\r\n        } else if (vehicleID == 4) {\r\n            userPurchase[buyer].ferrariRenewCount = 0;\r\n        }\r\n        updateUserBalance(totalCost);\r\n        return true;\r\n    }\r\n\r\n    function coinReturn() public payable {\r\n        buyer = msg.sender;\r\n        require(userPurchase[buyer].purse > 0, \"Error: No funds to return\");\r\n\r\n        buyer.transfer(userPurchase[buyer].purse);\r\n        userPurchase[buyer].purse -= userPurchase[buyer].purse;\r\n    }\r\n\r\n    function getRegCounts()\r\n        public\r\n        view\r\n        returns (\r\n            uint256,\r\n            uint256,\r\n            uint256,\r\n            uint256\r\n        )\r\n    {\r\n        return (\r\n            userPurchase[buyer].scionRenewCount,\r\n            userPurchase[buyer].civicRenewCount,\r\n            userPurchase[buyer].viperRenewCount,\r\n            userPurchase[buyer].ferrariRenewCount\r\n        );\r\n    }\r\n}\r\n",
  "sourcePath": "C:\\Users\\aranb\\Desktop\\DMV dApp\\contracts\\DMV.sol",
  "compiler": {
    "name": "solc",
    "version": "0.5.16+commit.9c3226ce.Emscripten.clang"
  },
  "schemaVersion": "3.4.7",
  "updatedAt": "2022-04-27T21:47:38.021Z",
  "networkType": "ethereum",
  "devdoc": {
    "methods": {}
  },
  "userdoc": {
    "methods": {}
  }
}