{
  "contractName": "DMV",
  "abi": [
    {
      "inputs": [],
      "payable": false,
      "stateMutability": "nonpayable",
      "type": "constructor"
    },
    {
      "constant": true,
      "inputs": [],
      "name": "buyer",
      "outputs": [
        {
          "internalType": "address payable",
          "name": "",
          "type": "address"
        }
      ],
      "payable": false,
      "stateMutability": "view",
      "type": "function"
    },
    {
      "constant": true,
      "inputs": [
        {
          "internalType": "address",
          "name": "",
          "type": "address"
        }
      ],
      "name": "userAddress",
      "outputs": [
        {
          "internalType": "string",
          "name": "custName",
          "type": "string"
        },
        {
          "internalType": "string",
          "name": "street",
          "type": "string"
        },
        {
          "internalType": "string",
          "name": "city",
          "type": "string"
        },
        {
          "internalType": "string",
          "name": "state",
          "type": "string"
        },
        {
          "internalType": "string",
          "name": "phone",
          "type": "string"
        }
      ],
      "payable": false,
      "stateMutability": "view",
      "type": "function"
    },
    {
      "constant": true,
      "inputs": [
        {
          "internalType": "address",
          "name": "",
          "type": "address"
        }
      ],
      "name": "userPurchase",
      "outputs": [
        {
          "internalType": "uint256",
          "name": "purse",
          "type": "uint256"
        },
        {
          "internalType": "uint256",
          "name": "scionRenewCount",
          "type": "uint256"
        },
        {
          "internalType": "uint256",
          "name": "civicRenewCount",
          "type": "uint256"
        },
        {
          "internalType": "uint256",
          "name": "viperRenewCount",
          "type": "uint256"
        },
        {
          "internalType": "uint256",
          "name": "ferrariRenewCount",
          "type": "uint256"
        }
      ],
      "payable": false,
      "stateMutability": "view",
      "type": "function"
    },
    {
      "constant": true,
      "inputs": [
        {
          "internalType": "uint256",
          "name": "",
          "type": "uint256"
        }
      ],
      "name": "vehicles",
      "outputs": [
        {
          "internalType": "uint256",
          "name": "id",
          "type": "uint256"
        },
        {
          "internalType": "string",
          "name": "name",
          "type": "string"
        },
        {
          "internalType": "uint256",
          "name": "cost",
          "type": "uint256"
        },
        {
          "internalType": "uint256",
          "name": "lifeTimeCount",
          "type": "uint256"
        }
      ],
      "payable": false,
      "stateMutability": "view",
      "type": "function"
    },
    {
      "constant": true,
      "inputs": [],
      "name": "getGlobalPrice",
      "outputs": [
        {
          "internalType": "uint256",
          "name": "",
          "type": "uint256"
        }
      ],
      "payable": false,
      "stateMutability": "view",
      "type": "function"
    },
    {
      "constant": false,
      "inputs": [
        {
          "internalType": "uint256",
          "name": "_price",
          "type": "uint256"
        }
      ],
      "name": "setGlobalPrice",
      "outputs": [],
      "payable": false,
      "stateMutability": "nonpayable",
      "type": "function"
    },
    {
      "constant": false,
      "inputs": [],
      "name": "deposit",
      "outputs": [
        {
          "internalType": "uint256",
          "name": "",
          "type": "uint256"
        },
        {
          "internalType": "uint256",
          "name": "",
          "type": "uint256"
        }
      ],
      "payable": true,
      "stateMutability": "payable",
      "type": "function"
    },
    {
      "constant": false,
      "inputs": [
        {
          "internalType": "string",
          "name": "_custName",
          "type": "string"
        },
        {
          "internalType": "string",
          "name": "_street",
          "type": "string"
        },
        {
          "internalType": "string",
          "name": "_city",
          "type": "string"
        },
        {
          "internalType": "string",
          "name": "_state",
          "type": "string"
        },
        {
          "internalType": "string",
          "name": "_phone",
          "type": "string"
        }
      ],
      "name": "updateUserAddress",
      "outputs": [],
      "payable": false,
      "stateMutability": "nonpayable",
      "type": "function"
    },
    {
      "constant": false,
      "inputs": [
        {
          "internalType": "uint256",
          "name": "vehicleID",
          "type": "uint256"
        },
        {
          "internalType": "uint256",
          "name": "_count",
          "type": "uint256"
        }
      ],
      "name": "select",
      "outputs": [
        {
          "internalType": "bool",
          "name": "",
          "type": "bool"
        }
      ],
      "payable": true,
      "stateMutability": "payable",
      "type": "function"
    },
    {
      "constant": false,
      "inputs": [],
      "name": "coinReturn",
      "outputs": [],
      "payable": true,
      "stateMutability": "payable",
      "type": "function"
    },
    {
      "constant": true,
      "inputs": [],
      "name": "getRegCounts",
      "outputs": [
        {
          "internalType": "uint256",
          "name": "",
          "type": "uint256"
        },
        {
          "internalType": "uint256",
          "name": "",
          "type": "uint256"
        },
        {
          "internalType": "uint256",
          "name": "",
          "type": "uint256"
        },
        {
          "internalType": "uint256",
          "name": "",
          "type": "uint256"
        }
      ],
      "payable": false,
      "stateMutability": "view",
      "type": "function"
    }
  ],
  "bytecode": "0x608060405260006002553480156200001657600080fd5b5066038d7ea4c68000600181905550336000806101000a81548173ffffffffffffffffffffffffffffffffffffffff021916908373ffffffffffffffffffffffffffffffffffffffff160217905550620000ab6040518060400160405280600581526020017f5363696f6e0000000000000000000000000000000000000000000000000000008152506200018360201b60201c565b620000f16040518060400160405280600581526020017f43697669630000000000000000000000000000000000000000000000000000008152506200018360201b60201c565b620001376040518060400160405280600581526020017f56697065720000000000000000000000000000000000000000000000000000008152506200018360201b60201c565b6200017d6040518060400160405280600781526020017f46657272617269000000000000000000000000000000000000000000000000008152506200018360201b60201c565b620002c2565b6002600081548092919060010191905055506040518060800160405280600254815260200182815260200160015481526020016000815250600360006002548152602001908152602001600020600082015181600001556020820151816001019080519060200190620001f892919062000213565b50604082015181600201556060820151816003015590505050565b828054600181600116156101000203166002900490600052602060002090601f016020900481019282601f106200025657805160ff191683800117855562000287565b8280016001018555821562000287579182015b828111156200028657825182559160200191906001019062000269565b5b5090506200029691906200029a565b5090565b620002bf91905b80821115620002bb576000816000905550600101620002a1565b5090565b90565b611af080620002d26000396000f3fe60806040526004361061009c5760003560e01c80637150d8ae116100645780637150d8ae146103cb578063b484eff714610422578063b8ba95fa146104a3578063b9316f971461056c578063bb9aca6614610890578063d0e30db0146108e05761009c565b80630fe600d9146100a15780632e1b5728146100ab578063360500cc146100e657806339b6357f146103605780635244ed71146103a0575b600080fd5b6100a9610905565b005b3480156100b757600080fd5b506100e4600480360360208110156100ce57600080fd5b8101908080359060200190929190505050610bbf565b005b3480156100f257600080fd5b506101356004803603602081101561010957600080fd5b81019080803573ffffffffffffffffffffffffffffffffffffffff169060200190929190505050610bd1565b60405180806020018060200180602001806020018060200186810386528b818151815260200191508051906020019080838360005b8381101561018557808201518184015260208101905061016a565b50505050905090810190601f1680156101b25780820380516001836020036101000a031916815260200191505b5086810385528a818151815260200191508051906020019080838360005b838110156101eb5780820151818401526020810190506101d0565b50505050905090810190601f1680156102185780820380516001836020036101000a031916815260200191505b50868103845289818151815260200191508051906020019080838360005b83811015610251578082015181840152602081019050610236565b50505050905090810190601f16801561027e5780820380516001836020036101000a031916815260200191505b50868103835288818151815260200191508051906020019080838360005b838110156102b757808201518184015260208101905061029c565b50505050905090810190601f1680156102e45780820380516001836020036101000a031916815260200191505b50868103825287818151815260200191508051906020019080838360005b8381101561031d578082015181840152602081019050610302565b50505050905090810190601f16801561034a5780820380516001836020036101000a031916815260200191505b509a505050505050505050505060405180910390f35b34801561036c57600080fd5b50610375610eff565b6040518085815260200184815260200183815260200182815260200194505050505060405180910390f35b3480156103ac57600080fd5b506103b56110a3565b6040518082815260200191505060405180910390f35b3480156103d757600080fd5b506103e06110ad565b604051808273ffffffffffffffffffffffffffffffffffffffff1673ffffffffffffffffffffffffffffffffffffffff16815260200191505060405180910390f35b34801561042e57600080fd5b506104716004803603602081101561044557600080fd5b81019080803573ffffffffffffffffffffffffffffffffffffffff1690602001909291905050506110d2565b604051808681526020018581526020018481526020018381526020018281526020019550505050505060405180910390f35b3480156104af57600080fd5b506104dc600480360360208110156104c657600080fd5b8101908080359060200190929190505050611108565b6040518085815260200180602001848152602001838152602001828103825285818151815260200191508051906020019080838360005b8381101561052e578082015181840152602081019050610513565b50505050905090810190601f16801561055b5780820380516001836020036101000a031916815260200191505b509550505050505060405180910390f35b34801561057857600080fd5b5061088e600480360360a081101561058f57600080fd5b81019080803590602001906401000000008111156105ac57600080fd5b8201836020820111156105be57600080fd5b803590602001918460018302840111640100000000831117156105e057600080fd5b91908080601f016020809104026020016040519081016040528093929190818152602001838380828437600081840152601f19601f8201169050808301925050505050505091929192908035906020019064010000000081111561064357600080fd5b82018360208201111561065557600080fd5b8035906020019184600183028401116401000000008311171561067757600080fd5b91908080601f016020809104026020016040519081016040528093929190818152602001838380828437600081840152601f19601f820116905080830192505050505050509192919290803590602001906401000000008111156106da57600080fd5b8201836020820111156106ec57600080fd5b8035906020019184600183028401116401000000008311171561070e57600080fd5b91908080601f016020809104026020016040519081016040528093929190818152602001838380828437600081840152601f19601f8201169050808301925050505050505091929192908035906020019064010000000081111561077157600080fd5b82018360208201111561078357600080fd5b803590602001918460018302840111640100000000831117156107a557600080fd5b91908080601f016020809104026020016040519081016040528093929190818152602001838380828437600081840152601f19601f8201169050808301925050505050505091929192908035906020019064010000000081111561080857600080fd5b82018360208201111561081a57600080fd5b8035906020019184600183028401116401000000008311171561083c57600080fd5b91908080601f016020809104026020016040519081016040528093929190818152602001838380828437600081840152601f19601f8201169050808301925050505050505091929192905050506111d0565b005b6108c6600480360360408110156108a657600080fd5b81019080803590602001909291908035906020019092919050505061138a565b604051808215151515815260200191505060405180910390f35b6108e861178f565b604051808381526020018281526020019250505060405180910390f35b336000806101000a81548173ffffffffffffffffffffffffffffffffffffffff021916908373ffffffffffffffffffffffffffffffffffffffff1602179055506000600460008060009054906101000a900473ffffffffffffffffffffffffffffffffffffffff1673ffffffffffffffffffffffffffffffffffffffff1673ffffffffffffffffffffffffffffffffffffffff1681526020019081526020016000206000015411610a1e576040517f08c379a00000000000000000000000000000000000000000000000000000000081526004018080602001828103825260198152602001807f4572726f723a204e6f2066756e647320746f2072657475726e0000000000000081525060200191505060405180910390fd5b6000809054906101000a900473ffffffffffffffffffffffffffffffffffffffff1673ffffffffffffffffffffffffffffffffffffffff166108fc600460008060009054906101000a900473ffffffffffffffffffffffffffffffffffffffff1673ffffffffffffffffffffffffffffffffffffffff1673ffffffffffffffffffffffffffffffffffffffff168152602001908152602001600020600001549081150290604051600060405180830381858888f19350505050158015610ae8573d6000803e3d6000fd5b50600460008060009054906101000a900473ffffffffffffffffffffffffffffffffffffffff1673ffffffffffffffffffffffffffffffffffffffff1673ffffffffffffffffffffffffffffffffffffffff16815260200190815260200160002060000154600460008060009054906101000a900473ffffffffffffffffffffffffffffffffffffffff1673ffffffffffffffffffffffffffffffffffffffff1673ffffffffffffffffffffffffffffffffffffffff16815260200190815260200160002060000160008282540392505081905550565b80600181905550610bce611928565b50565b6005602052806000526040600020600091509050806000018054600181600116156101000203166002900480601f016020809104026020016040519081016040528092919081815260200182805460018160011615610100020316600290048015610c7d5780601f10610c5257610100808354040283529160200191610c7d565b820191906000526020600020905b815481529060010190602001808311610c6057829003601f168201915b505050505090806001018054600181600116156101000203166002900480601f016020809104026020016040519081016040528092919081815260200182805460018160011615610100020316600290048015610d1b5780601f10610cf057610100808354040283529160200191610d1b565b820191906000526020600020905b815481529060010190602001808311610cfe57829003601f168201915b505050505090806002018054600181600116156101000203166002900480601f016020809104026020016040519081016040528092919081815260200182805460018160011615610100020316600290048015610db95780601f10610d8e57610100808354040283529160200191610db9565b820191906000526020600020905b815481529060010190602001808311610d9c57829003601f168201915b505050505090806003018054600181600116156101000203166002900480601f016020809104026020016040519081016040528092919081815260200182805460018160011615610100020316600290048015610e575780601f10610e2c57610100808354040283529160200191610e57565b820191906000526020600020905b815481529060010190602001808311610e3a57829003601f168201915b505050505090806004018054600181600116156101000203166002900480601f016020809104026020016040519081016040528092919081815260200182805460018160011615610100020316600290048015610ef55780601f10610eca57610100808354040283529160200191610ef5565b820191906000526020600020905b815481529060010190602001808311610ed857829003601f168201915b5050505050905085565b600080600080600460008060009054906101000a900473ffffffffffffffffffffffffffffffffffffffff1673ffffffffffffffffffffffffffffffffffffffff1673ffffffffffffffffffffffffffffffffffffffff16815260200190815260200160002060010154600460008060009054906101000a900473ffffffffffffffffffffffffffffffffffffffff1673ffffffffffffffffffffffffffffffffffffffff1673ffffffffffffffffffffffffffffffffffffffff16815260200190815260200160002060020154600460008060009054906101000a900473ffffffffffffffffffffffffffffffffffffffff1673ffffffffffffffffffffffffffffffffffffffff1673ffffffffffffffffffffffffffffffffffffffff16815260200190815260200160002060030154600460008060009054906101000a900473ffffffffffffffffffffffffffffffffffffffff1673ffffffffffffffffffffffffffffffffffffffff1673ffffffffffffffffffffffffffffffffffffffff16815260200190815260200160002060040154935093509350935090919293565b6000600154905090565b6000809054906101000a900473ffffffffffffffffffffffffffffffffffffffff1681565b60046020528060005260406000206000915090508060000154908060010154908060020154908060030154908060040154905085565b6003602052806000526040600020600091509050806000015490806001018054600181600116156101000203166002900480601f0160208091040260200160405190810160405280929190818152602001828054600181600116156101000203166002900480156111ba5780601f1061118f576101008083540402835291602001916111ba565b820191906000526020600020905b81548152906001019060200180831161119d57829003601f168201915b5050505050908060020154908060030154905084565b84600560003373ffffffffffffffffffffffffffffffffffffffff1673ffffffffffffffffffffffffffffffffffffffff1681526020019081526020016000206000019080519060200190611226929190611a16565b5083600560003373ffffffffffffffffffffffffffffffffffffffff1673ffffffffffffffffffffffffffffffffffffffff168152602001908152602001600020600101908051906020019061127d929190611a16565b5082600560003373ffffffffffffffffffffffffffffffffffffffff1673ffffffffffffffffffffffffffffffffffffffff16815260200190815260200160002060020190805190602001906112d4929190611a16565b5081600560003373ffffffffffffffffffffffffffffffffffffffff1673ffffffffffffffffffffffffffffffffffffffff168152602001908152602001600020600301908051906020019061132b929190611a16565b5080600560003373ffffffffffffffffffffffffffffffffffffffff1673ffffffffffffffffffffffffffffffffffffffff1681526020019081526020016000206004019080519060200190611382929190611a16565b505050505050565b6000336000806101000a81548173ffffffffffffffffffffffffffffffffffffffff021916908373ffffffffffffffffffffffffffffffffffffffff16021790555060036000848152602001908152602001600020600201548202600460008060009054906101000a900473ffffffffffffffffffffffffffffffffffffffff1673ffffffffffffffffffffffffffffffffffffffff1673ffffffffffffffffffffffffffffffffffffffff1681526020019081526020016000206000015410156114bd576040517f08c379a00000000000000000000000000000000000000000000000000000000081526004018080602001828103825260198152602001807f4572726f723a20496e73756666696369656e742046756e64730000000000000081525060200191505060405180910390fd5b6000831180156114cd5750600583105b61153f576040517f08c379a00000000000000000000000000000000000000000000000000000000081526004018080602001828103825260188152602001807f4572726f723a20496e76616c69642053656c656374696f6e000000000000000081525060200191505060405180910390fd5b600060036000858152602001908152602001600020600201548302905082600360008681526020019081526020016000206003016000828254019250508190555060018414156115ff5782600460008060009054906101000a900473ffffffffffffffffffffffffffffffffffffffff1673ffffffffffffffffffffffffffffffffffffffff1673ffffffffffffffffffffffffffffffffffffffff1681526020019081526020016000206001016000828254019250508190555061177b565b600284141561167e5782600460008060009054906101000a900473ffffffffffffffffffffffffffffffffffffffff1673ffffffffffffffffffffffffffffffffffffffff1673ffffffffffffffffffffffffffffffffffffffff1681526020019081526020016000206002016000828254019250508190555061177a565b60038414156116fd5782600460008060009054906101000a900473ffffffffffffffffffffffffffffffffffffffff1673ffffffffffffffffffffffffffffffffffffffff1673ffffffffffffffffffffffffffffffffffffffff16815260200190815260200160002060030160008282540192505081905550611779565b60048414156117785782600460008060009054906101000a900473ffffffffffffffffffffffffffffffffffffffff1673ffffffffffffffffffffffffffffffffffffffff1673ffffffffffffffffffffffffffffffffffffffff168152602001908152602001600020600401600082825401925050819055505b5b5b5b611784816119a2565b600191505092915050565b60008060015434101561180a576040517f08c379a00000000000000000000000000000000000000000000000000000000081526004018080602001828103825260058152602001807f4572726f7200000000000000000000000000000000000000000000000000000081525060200191505060405180910390fd5b336000806101000a81548173ffffffffffffffffffffffffffffffffffffffff021916908373ffffffffffffffffffffffffffffffffffffffff16021790555034600460008060009054906101000a900473ffffffffffffffffffffffffffffffffffffffff1673ffffffffffffffffffffffffffffffffffffffff1673ffffffffffffffffffffffffffffffffffffffff1681526020019081526020016000206000016000828254019250508190555047600460008060009054906101000a900473ffffffffffffffffffffffffffffffffffffffff1673ffffffffffffffffffffffffffffffffffffffff1673ffffffffffffffffffffffffffffffffffffffff16815260200190815260200160002060000154915091509091565b600154600360006001815260200190815260200160002060020181905550600154600360006002815260200190815260200160002060020181905550600154600360006003815260200190815260200160002060020181905550600154600360006004815260200190815260200160002060020181905550565b80600460008060009054906101000a900473ffffffffffffffffffffffffffffffffffffffff1673ffffffffffffffffffffffffffffffffffffffff1673ffffffffffffffffffffffffffffffffffffffff1681526020019081526020016000206000016000828254039250508190555050565b828054600181600116156101000203166002900490600052602060002090601f016020900481019282601f10611a5757805160ff1916838001178555611a85565b82800160010185558215611a85579182015b82811115611a84578251825591602001919060010190611a69565b5b509050611a929190611a96565b5090565b611ab891905b80821115611ab4576000816000905550600101611a9c565b5090565b9056fea265627a7a72315820212b2f41c29acf76712771dd7a9bc548afd4f03cb6a132580c258ab99b75e83064736f6c63430005100032",
  "source": "pragma solidity >=0.4.22 <0.6.0;\r\n\r\ncontract DMV {\r\n    address payable public buyer;\r\n    uint256 globalPrice;\r\n\r\n    struct Vehicles {\r\n        uint256 id;\r\n        string name;\r\n        uint256 cost;\r\n        uint256 lifeTimeCount;\r\n    }\r\n    struct Purchases {\r\n        uint256 purse;\r\n        uint256 scionRenewCount;\r\n        uint256 civicRenewCount;\r\n        uint256 viperRenewCount;\r\n        uint256 ferrariRenewCount;\r\n    }\r\n    struct AddressDetails{\r\n        string custName;\r\n        string street;\r\n        string city;\r\n        string state;\r\n        string phone;\r\n    }\r\n    uint256 numVehicleRegistrations = 0;\r\n    mapping(uint256 => Vehicles) public vehicles;\r\n    mapping(address => Purchases) public userPurchase;\r\n    mapping(address => AddressDetails) public userAddress;\r\n\r\n    constructor() public {\r\n        globalPrice = 1000000000000000; // 0.001 Eth\r\n        buyer = msg.sender;\r\n        addVehicle(\"Scion\");\r\n        addVehicle(\"Civic\");\r\n        addVehicle(\"Viper\");\r\n        addVehicle(\"Ferrari\");\r\n    }\r\n\r\n    function addVehicle(string memory _name) private {\r\n        numVehicleRegistrations++;\r\n        vehicles[numVehicleRegistrations] = Vehicles(\r\n            numVehicleRegistrations,\r\n            _name,\r\n            globalPrice,\r\n            0\r\n        );\r\n    }\r\n\r\n    function getGlobalPrice() public view returns (uint256) {\r\n        return globalPrice;\r\n    }\r\n\r\n    function setGlobalPrice(uint256 _price) public {\r\n        globalPrice = _price;\r\n        setVehicleRegCost();\r\n    }\r\n\r\n    function setVehicleRegCost() private {\r\n        vehicles[1].cost = globalPrice;\r\n        vehicles[2].cost = globalPrice;\r\n        vehicles[3].cost = globalPrice;\r\n        vehicles[4].cost = globalPrice;\r\n    }\r\n\r\n    function deposit() public payable returns (uint256, uint256) {\r\n        require(msg.value >= globalPrice, \"Error\");\r\n        buyer = msg.sender;\r\n        userPurchase[buyer].purse += msg.value;\r\n        return (address(this).balance, userPurchase[buyer].purse);\r\n    }\r\n\r\n    function updateUserBalance(uint256 _totalCost) private {\r\n        userPurchase[buyer].purse -= _totalCost;\r\n    }\r\n\r\n    function updateUserAddress(string memory _custName, string memory _street, string memory _city, string memory _state, string memory _phone) public {\r\n        userAddress[msg.sender].custName = _custName;\r\n        userAddress[msg.sender].street = _street;\r\n        userAddress[msg.sender].city = _city;\r\n        userAddress[msg.sender].state = _state;\r\n        userAddress[msg.sender].phone = _phone;\r\n    }\r\n\r\n    function select(uint256 vehicleID, uint256 _count)\r\n        public\r\n        payable\r\n        returns (bool)\r\n    {\r\n        buyer = msg.sender;\r\n\r\n        //Check balance is enough to cover purchase\r\n        require(\r\n            userPurchase[buyer].purse >= (_count * vehicles[vehicleID].cost),\r\n            \"Error: Insufficient Funds\"\r\n        );\r\n\r\n        require((vehicleID > 0 && vehicleID < 5), \"Error: Invalid Selection\");\r\n\r\n        uint256 totalCost = _count * vehicles[vehicleID].cost;\r\n\r\n        vehicles[vehicleID].lifeTimeCount += _count;\r\n\r\n        if (vehicleID == 1) {\r\n            userPurchase[buyer].scionRenewCount += _count;\r\n        } else if (vehicleID == 2) {\r\n            userPurchase[buyer].civicRenewCount += _count;\r\n        } else if (vehicleID == 3) {\r\n            userPurchase[buyer].viperRenewCount += _count;\r\n        } else if (vehicleID == 4) {\r\n            userPurchase[buyer].ferrariRenewCount += _count;\r\n        }\r\n        updateUserBalance(totalCost);\r\n        return true;\r\n    }\r\n\r\n    function coinReturn() public payable {\r\n        buyer = msg.sender;\r\n        require(userPurchase[buyer].purse > 0, \"Error: No funds to return\");\r\n\r\n        buyer.transfer(userPurchase[buyer].purse);\r\n        userPurchase[buyer].purse -= userPurchase[buyer].purse;\r\n    }\r\n\r\n    function getRegCounts()\r\n        public\r\n        view\r\n        returns (\r\n            uint256,\r\n            uint256,\r\n            uint256,\r\n            uint256\r\n        )\r\n    {\r\n        return (\r\n            userPurchase[buyer].scionRenewCount,\r\n            userPurchase[buyer].civicRenewCount,\r\n            userPurchase[buyer].viperRenewCount,\r\n            userPurchase[buyer].ferrariRenewCount\r\n        );\r\n    }\r\n}\r\n",
  "sourcePath": "C:\\Users\\aranb\\Desktop\\DMV dApp\\contracts\\DMV.sol",
  "compiler": {
    "name": "solc",
    "version": "0.5.16+commit.9c3226ce.Emscripten.clang"
  },
  "schemaVersion": "3.4.7",
  "updatedAt": "2022-04-27T01:05:50.207Z",
  "networkType": "ethereum",
  "devdoc": {
    "methods": {}
  },
  "userdoc": {
    "methods": {}
  }
}