{
  "contractName": "DMV",
  "abi": [
    {
      "inputs": [],
      "payable": false,
      "stateMutability": "nonpayable",
      "type": "constructor"
    },
    {
      "constant": true,
      "inputs": [],
      "name": "buyer",
      "outputs": [
        {
          "internalType": "address payable",
          "name": "",
          "type": "address"
        }
      ],
      "payable": false,
      "stateMutability": "view",
      "type": "function"
    },
    {
      "constant": true,
      "inputs": [
        {
          "internalType": "address",
          "name": "",
          "type": "address"
        }
      ],
      "name": "userPurchase",
      "outputs": [
        {
          "internalType": "uint256",
          "name": "purse",
          "type": "uint256"
        },
        {
          "internalType": "uint256",
          "name": "scionRenewCount",
          "type": "uint256"
        },
        {
          "internalType": "uint256",
          "name": "civicRenewCount",
          "type": "uint256"
        },
        {
          "internalType": "uint256",
          "name": "viperRenewCount",
          "type": "uint256"
        },
        {
          "internalType": "uint256",
          "name": "ferrariRenewCount",
          "type": "uint256"
        }
      ],
      "payable": false,
      "stateMutability": "view",
      "type": "function"
    },
    {
      "constant": true,
      "inputs": [
        {
          "internalType": "uint256",
          "name": "",
          "type": "uint256"
        }
      ],
      "name": "vehicles",
      "outputs": [
        {
          "internalType": "uint256",
          "name": "id",
          "type": "uint256"
        },
        {
          "internalType": "string",
          "name": "name",
          "type": "string"
        },
        {
          "internalType": "uint256",
          "name": "cost",
          "type": "uint256"
        },
        {
          "internalType": "uint256",
          "name": "lifeTimeCount",
          "type": "uint256"
        }
      ],
      "payable": false,
      "stateMutability": "view",
      "type": "function"
    },
    {
      "constant": true,
      "inputs": [],
      "name": "getGlobalPrice",
      "outputs": [
        {
          "internalType": "uint256",
          "name": "",
          "type": "uint256"
        }
      ],
      "payable": false,
      "stateMutability": "view",
      "type": "function"
    },
    {
      "constant": false,
      "inputs": [
        {
          "internalType": "uint256",
          "name": "_price",
          "type": "uint256"
        }
      ],
      "name": "setGlobalPrice",
      "outputs": [],
      "payable": false,
      "stateMutability": "nonpayable",
      "type": "function"
    },
    {
      "constant": false,
      "inputs": [],
      "name": "deposit",
      "outputs": [
        {
          "internalType": "uint256",
          "name": "",
          "type": "uint256"
        },
        {
          "internalType": "uint256",
          "name": "",
          "type": "uint256"
        }
      ],
      "payable": true,
      "stateMutability": "payable",
      "type": "function"
    },
    {
      "constant": false,
      "inputs": [
        {
          "internalType": "uint256",
          "name": "vehicleID",
          "type": "uint256"
        },
        {
          "internalType": "uint256",
          "name": "_count",
          "type": "uint256"
        }
      ],
      "name": "select",
      "outputs": [
        {
          "internalType": "bool",
          "name": "",
          "type": "bool"
        }
      ],
      "payable": true,
      "stateMutability": "payable",
      "type": "function"
    },
    {
      "constant": false,
      "inputs": [],
      "name": "coinReturn",
      "outputs": [],
      "payable": true,
      "stateMutability": "payable",
      "type": "function"
    },
    {
      "constant": true,
      "inputs": [],
      "name": "getRegCounts",
      "outputs": [
        {
          "internalType": "uint256",
          "name": "",
          "type": "uint256"
        },
        {
          "internalType": "uint256",
          "name": "",
          "type": "uint256"
        },
        {
          "internalType": "uint256",
          "name": "",
          "type": "uint256"
        },
        {
          "internalType": "uint256",
          "name": "",
          "type": "uint256"
        }
      ],
      "payable": false,
      "stateMutability": "view",
      "type": "function"
    }
  ],
  "bytecode": "0x608060405260006002553480156200001657600080fd5b5066038d7ea4c68000600181905550336000806101000a81548173ffffffffffffffffffffffffffffffffffffffff021916908373ffffffffffffffffffffffffffffffffffffffff160217905550620000ab6040518060400160405280600581526020017f5363696f6e0000000000000000000000000000000000000000000000000000008152506200018360201b60201c565b620000f16040518060400160405280600581526020017f43697669630000000000000000000000000000000000000000000000000000008152506200018360201b60201c565b620001376040518060400160405280600581526020017f56697065720000000000000000000000000000000000000000000000000000008152506200018360201b60201c565b6200017d6040518060400160405280600781526020017f46657272617269000000000000000000000000000000000000000000000000008152506200018360201b60201c565b620002c2565b6002600081548092919060010191905055506040518060800160405280600254815260200182815260200160015481526020016000815250600360006002548152602001908152602001600020600082015181600001556020820151816001019080519060200190620001f892919062000213565b50604082015181600201556060820151816003015590505050565b828054600181600116156101000203166002900490600052602060002090601f016020900481019282601f106200025657805160ff191683800117855562000287565b8280016001018555821562000287579182015b828111156200028657825182559160200191906001019062000269565b5b5090506200029691906200029a565b5090565b620002bf91905b80821115620002bb576000816000905550600101620002a1565b5090565b90565b610faf80620002d26000396000f3fe6080604052600436106100865760003560e01c80637150d8ae116100595780637150d8ae1461013b578063b484eff714610192578063b8ba95fa14610213578063bb9aca66146102dc578063d0e30db01461032c57610086565b80630fe600d91461008b5780632e1b57281461009557806339b6357f146100d05780635244ed7114610110575b600080fd5b610093610351565b005b3480156100a157600080fd5b506100ce600480360360208110156100b857600080fd5b810190808035906020019092919050505061060b565b005b3480156100dc57600080fd5b506100e561061d565b6040518085815260200184815260200183815260200182815260200194505050505060405180910390f35b34801561011c57600080fd5b506101256107c1565b6040518082815260200191505060405180910390f35b34801561014757600080fd5b506101506107cb565b604051808273ffffffffffffffffffffffffffffffffffffffff1673ffffffffffffffffffffffffffffffffffffffff16815260200191505060405180910390f35b34801561019e57600080fd5b506101e1600480360360208110156101b557600080fd5b81019080803573ffffffffffffffffffffffffffffffffffffffff1690602001909291905050506107f0565b604051808681526020018581526020018481526020018381526020018281526020019550505050505060405180910390f35b34801561021f57600080fd5b5061024c6004803603602081101561023657600080fd5b8101908080359060200190929190505050610826565b6040518085815260200180602001848152602001838152602001828103825285818151815260200191508051906020019080838360005b8381101561029e578082015181840152602081019050610283565b50505050905090810190601f1680156102cb5780820380516001836020036101000a031916815260200191505b509550505050505060405180910390f35b610312600480360360408110156102f257600080fd5b8101908080359060200190929190803590602001909291905050506108ee565b604051808215151515815260200191505060405180910390f35b610334610cf3565b604051808381526020018281526020019250505060405180910390f35b336000806101000a81548173ffffffffffffffffffffffffffffffffffffffff021916908373ffffffffffffffffffffffffffffffffffffffff1602179055506000600460008060009054906101000a900473ffffffffffffffffffffffffffffffffffffffff1673ffffffffffffffffffffffffffffffffffffffff1673ffffffffffffffffffffffffffffffffffffffff168152602001908152602001600020600001541161046a576040517f08c379a00000000000000000000000000000000000000000000000000000000081526004018080602001828103825260198152602001807f4572726f723a204e6f2066756e647320746f2072657475726e0000000000000081525060200191505060405180910390fd5b6000809054906101000a900473ffffffffffffffffffffffffffffffffffffffff1673ffffffffffffffffffffffffffffffffffffffff166108fc600460008060009054906101000a900473ffffffffffffffffffffffffffffffffffffffff1673ffffffffffffffffffffffffffffffffffffffff1673ffffffffffffffffffffffffffffffffffffffff168152602001908152602001600020600001549081150290604051600060405180830381858888f19350505050158015610534573d6000803e3d6000fd5b50600460008060009054906101000a900473ffffffffffffffffffffffffffffffffffffffff1673ffffffffffffffffffffffffffffffffffffffff1673ffffffffffffffffffffffffffffffffffffffff16815260200190815260200160002060000154600460008060009054906101000a900473ffffffffffffffffffffffffffffffffffffffff1673ffffffffffffffffffffffffffffffffffffffff1673ffffffffffffffffffffffffffffffffffffffff16815260200190815260200160002060000160008282540392505081905550565b8060018190555061061a610e8c565b50565b600080600080600460008060009054906101000a900473ffffffffffffffffffffffffffffffffffffffff1673ffffffffffffffffffffffffffffffffffffffff1673ffffffffffffffffffffffffffffffffffffffff16815260200190815260200160002060010154600460008060009054906101000a900473ffffffffffffffffffffffffffffffffffffffff1673ffffffffffffffffffffffffffffffffffffffff1673ffffffffffffffffffffffffffffffffffffffff16815260200190815260200160002060020154600460008060009054906101000a900473ffffffffffffffffffffffffffffffffffffffff1673ffffffffffffffffffffffffffffffffffffffff1673ffffffffffffffffffffffffffffffffffffffff16815260200190815260200160002060030154600460008060009054906101000a900473ffffffffffffffffffffffffffffffffffffffff1673ffffffffffffffffffffffffffffffffffffffff1673ffffffffffffffffffffffffffffffffffffffff16815260200190815260200160002060040154935093509350935090919293565b6000600154905090565b6000809054906101000a900473ffffffffffffffffffffffffffffffffffffffff1681565b60046020528060005260406000206000915090508060000154908060010154908060020154908060030154908060040154905085565b6003602052806000526040600020600091509050806000015490806001018054600181600116156101000203166002900480601f0160208091040260200160405190810160405280929190818152602001828054600181600116156101000203166002900480156108d85780601f106108ad576101008083540402835291602001916108d8565b820191906000526020600020905b8154815290600101906020018083116108bb57829003601f168201915b5050505050908060020154908060030154905084565b6000336000806101000a81548173ffffffffffffffffffffffffffffffffffffffff021916908373ffffffffffffffffffffffffffffffffffffffff16021790555060036000848152602001908152602001600020600201548202600460008060009054906101000a900473ffffffffffffffffffffffffffffffffffffffff1673ffffffffffffffffffffffffffffffffffffffff1673ffffffffffffffffffffffffffffffffffffffff168152602001908152602001600020600001541015610a21576040517f08c379a00000000000000000000000000000000000000000000000000000000081526004018080602001828103825260198152602001807f4572726f723a20496e73756666696369656e742046756e64730000000000000081525060200191505060405180910390fd5b600083118015610a315750600583105b610aa3576040517f08c379a00000000000000000000000000000000000000000000000000000000081526004018080602001828103825260188152602001807f4572726f723a20496e76616c69642053656c656374696f6e000000000000000081525060200191505060405180910390fd5b60006003600085815260200190815260200160002060020154830290508260036000868152602001908152602001600020600301600082825401925050819055506001841415610b635782600460008060009054906101000a900473ffffffffffffffffffffffffffffffffffffffff1673ffffffffffffffffffffffffffffffffffffffff1673ffffffffffffffffffffffffffffffffffffffff16815260200190815260200160002060010160008282540192505081905550610cdf565b6002841415610be25782600460008060009054906101000a900473ffffffffffffffffffffffffffffffffffffffff1673ffffffffffffffffffffffffffffffffffffffff1673ffffffffffffffffffffffffffffffffffffffff16815260200190815260200160002060020160008282540192505081905550610cde565b6003841415610c615782600460008060009054906101000a900473ffffffffffffffffffffffffffffffffffffffff1673ffffffffffffffffffffffffffffffffffffffff1673ffffffffffffffffffffffffffffffffffffffff16815260200190815260200160002060030160008282540192505081905550610cdd565b6004841415610cdc5782600460008060009054906101000a900473ffffffffffffffffffffffffffffffffffffffff1673ffffffffffffffffffffffffffffffffffffffff1673ffffffffffffffffffffffffffffffffffffffff168152602001908152602001600020600401600082825401925050819055505b5b5b5b610ce881610f06565b600191505092915050565b600080600154341015610d6e576040517f08c379a00000000000000000000000000000000000000000000000000000000081526004018080602001828103825260058152602001807f4572726f7200000000000000000000000000000000000000000000000000000081525060200191505060405180910390fd5b336000806101000a81548173ffffffffffffffffffffffffffffffffffffffff021916908373ffffffffffffffffffffffffffffffffffffffff16021790555034600460008060009054906101000a900473ffffffffffffffffffffffffffffffffffffffff1673ffffffffffffffffffffffffffffffffffffffff1673ffffffffffffffffffffffffffffffffffffffff1681526020019081526020016000206000016000828254019250508190555047600460008060009054906101000a900473ffffffffffffffffffffffffffffffffffffffff1673ffffffffffffffffffffffffffffffffffffffff1673ffffffffffffffffffffffffffffffffffffffff16815260200190815260200160002060000154915091509091565b600154600360006001815260200190815260200160002060020181905550600154600360006002815260200190815260200160002060020181905550600154600360006003815260200190815260200160002060020181905550600154600360006004815260200190815260200160002060020181905550565b80600460008060009054906101000a900473ffffffffffffffffffffffffffffffffffffffff1673ffffffffffffffffffffffffffffffffffffffff1673ffffffffffffffffffffffffffffffffffffffff168152602001908152602001600020600001600082825403925050819055505056fea265627a7a7231582067e54ef410cfddca250673f6307fbbde189edb3663e5c7fb99098484ac1d791164736f6c63430005100032",
  "source": "pragma solidity >=0.4.22 <0.6.0;\r\n\r\ncontract DMV {\r\n    address payable public buyer;\r\n    uint256 globalPrice;\r\n\r\n    struct Vehicles {\r\n        uint256 id;\r\n        string name;\r\n        uint256 cost;\r\n        uint256 lifeTimeCount;\r\n    }\r\n    struct Purchases {\r\n        uint256 purse;\r\n        uint256 scionRenewCount;\r\n        uint256 civicRenewCount;\r\n        uint256 viperRenewCount;\r\n        uint256 ferrariRenewCount;\r\n    }\r\n    uint256 numVehicleRegistrations = 0;\r\n    mapping(uint256 => Vehicles) public vehicles;\r\n    mapping(address => Purchases) public userPurchase;\r\n\r\n    constructor() public {\r\n        globalPrice = 1000000000000000; // 0.001 Eth\r\n        buyer = msg.sender;\r\n        addVehicle(\"Scion\");\r\n        addVehicle(\"Civic\");\r\n        addVehicle(\"Viper\");\r\n        addVehicle(\"Ferrari\");\r\n    }\r\n\r\n    function addVehicle(string memory _name) private {\r\n        numVehicleRegistrations++;\r\n        vehicles[numVehicleRegistrations] = Vehicles(\r\n            numVehicleRegistrations,\r\n            _name,\r\n            globalPrice,\r\n            0\r\n        );\r\n    }\r\n\r\n    function getGlobalPrice() public view returns (uint256) {\r\n        return globalPrice;\r\n    }\r\n\r\n    function setGlobalPrice(uint256 _price) public {\r\n        globalPrice = _price;\r\n        setVehicleRegCost();\r\n    }\r\n\r\n    function setVehicleRegCost() private {\r\n        vehicles[1].cost = globalPrice;\r\n        vehicles[2].cost = globalPrice;\r\n        vehicles[3].cost = globalPrice;\r\n        vehicles[4].cost = globalPrice;\r\n    }\r\n\r\n    function deposit() public payable returns (uint256, uint256) {\r\n        require(msg.value >= globalPrice, \"Error\");\r\n        buyer = msg.sender;\r\n        userPurchase[buyer].purse += msg.value;\r\n        return (address(this).balance, userPurchase[buyer].purse);\r\n    }\r\n\r\n    function updateUserBalance(uint256 _totalCost) private {\r\n        userPurchase[buyer].purse -= _totalCost;\r\n    }\r\n\r\n    function select(uint256 vehicleID, uint256 _count)\r\n        public\r\n        payable\r\n        returns (bool)\r\n    {\r\n        buyer = msg.sender;\r\n\r\n        //Check balance is enough to cover purchase\r\n        require(\r\n            userPurchase[buyer].purse >= (_count * vehicles[vehicleID].cost),\r\n            \"Error: Insufficient Funds\"\r\n        );\r\n\r\n        require((vehicleID > 0 && vehicleID < 5), \"Error: Invalid Selection\");\r\n\r\n        uint256 totalCost = _count * vehicles[vehicleID].cost;\r\n\r\n        vehicles[vehicleID].lifeTimeCount += _count;\r\n\r\n        if (vehicleID == 1) {\r\n            userPurchase[buyer].scionRenewCount += _count;\r\n        } else if (vehicleID == 2) {\r\n            userPurchase[buyer].civicRenewCount += _count;\r\n        } else if (vehicleID == 3) {\r\n            userPurchase[buyer].viperRenewCount += _count;\r\n        } else if (vehicleID == 4) {\r\n            userPurchase[buyer].ferrariRenewCount += _count;\r\n        }\r\n        updateUserBalance(totalCost);\r\n        return true;\r\n    }\r\n\r\n    function coinReturn() public payable {\r\n        buyer = msg.sender;\r\n        require(userPurchase[buyer].purse > 0, \"Error: No funds to return\");\r\n\r\n        buyer.transfer(userPurchase[buyer].purse);\r\n        userPurchase[buyer].purse -= userPurchase[buyer].purse;\r\n    }\r\n\r\n    function getRegCounts()\r\n        public\r\n        view\r\n        returns (\r\n            uint256,\r\n            uint256,\r\n            uint256,\r\n            uint256\r\n        )\r\n    {\r\n        return (\r\n            userPurchase[buyer].scionRenewCount,\r\n            userPurchase[buyer].civicRenewCount,\r\n            userPurchase[buyer].viperRenewCount,\r\n            userPurchase[buyer].ferrariRenewCount\r\n        );\r\n    }\r\n}\r\n",
  "sourcePath": "C:\\Users\\aranb\\Desktop\\DMV dApp\\contracts\\DMV.sol",
  "compiler": {
    "name": "solc",
    "version": "0.5.16+commit.9c3226ce.Emscripten.clang"
  },
  "schemaVersion": "3.4.7",
  "updatedAt": "2022-04-20T01:55:46.551Z",
  "networkType": "ethereum",
  "devdoc": {
    "methods": {}
  },
  "userdoc": {
    "methods": {}
  }
}