{
  "contractName": "DMV",
  "abi": [
    {
      "inputs": [],
      "payable": false,
      "stateMutability": "nonpayable",
      "type": "constructor"
    },
    {
      "constant": true,
      "inputs": [],
      "name": "buyer",
      "outputs": [
        {
          "internalType": "address payable",
          "name": "",
          "type": "address"
        }
      ],
      "payable": false,
      "stateMutability": "view",
      "type": "function"
    },
    {
      "constant": true,
      "inputs": [
        {
          "internalType": "address",
          "name": "",
          "type": "address"
        }
      ],
      "name": "otherVehicle",
      "outputs": [
        {
          "internalType": "string",
          "name": "year",
          "type": "string"
        },
        {
          "internalType": "string",
          "name": "vehicleBrand",
          "type": "string"
        },
        {
          "internalType": "uint256",
          "name": "cost",
          "type": "uint256"
        },
        {
          "internalType": "uint256",
          "name": "yearsReg",
          "type": "uint256"
        }
      ],
      "payable": false,
      "stateMutability": "view",
      "type": "function"
    },
    {
      "constant": true,
      "inputs": [
        {
          "internalType": "address",
          "name": "",
          "type": "address"
        }
      ],
      "name": "userAddress",
      "outputs": [
        {
          "internalType": "string",
          "name": "custName",
          "type": "string"
        },
        {
          "internalType": "string",
          "name": "street",
          "type": "string"
        },
        {
          "internalType": "string",
          "name": "city",
          "type": "string"
        },
        {
          "internalType": "string",
          "name": "state",
          "type": "string"
        },
        {
          "internalType": "string",
          "name": "phone",
          "type": "string"
        }
      ],
      "payable": false,
      "stateMutability": "view",
      "type": "function"
    },
    {
      "constant": true,
      "inputs": [
        {
          "internalType": "address",
          "name": "",
          "type": "address"
        }
      ],
      "name": "userPurchase",
      "outputs": [
        {
          "internalType": "uint256",
          "name": "purse",
          "type": "uint256"
        },
        {
          "internalType": "uint256",
          "name": "scionRenewCount",
          "type": "uint256"
        },
        {
          "internalType": "uint256",
          "name": "civicRenewCount",
          "type": "uint256"
        },
        {
          "internalType": "uint256",
          "name": "viperRenewCount",
          "type": "uint256"
        },
        {
          "internalType": "uint256",
          "name": "ferrariRenewCount",
          "type": "uint256"
        },
        {
          "internalType": "uint256",
          "name": "lexusRenewCount",
          "type": "uint256"
        },
        {
          "internalType": "uint256",
          "name": "otherRenewCount",
          "type": "uint256"
        }
      ],
      "payable": false,
      "stateMutability": "view",
      "type": "function"
    },
    {
      "constant": true,
      "inputs": [
        {
          "internalType": "uint256",
          "name": "",
          "type": "uint256"
        }
      ],
      "name": "vehicles",
      "outputs": [
        {
          "internalType": "uint256",
          "name": "id",
          "type": "uint256"
        },
        {
          "internalType": "string",
          "name": "name",
          "type": "string"
        },
        {
          "internalType": "uint256",
          "name": "cost",
          "type": "uint256"
        }
      ],
      "payable": false,
      "stateMutability": "view",
      "type": "function"
    },
    {
      "constant": false,
      "inputs": [
        {
          "internalType": "string",
          "name": "_year",
          "type": "string"
        },
        {
          "internalType": "string",
          "name": "_brand",
          "type": "string"
        }
      ],
      "name": "addOtherVehicle",
      "outputs": [],
      "payable": false,
      "stateMutability": "nonpayable",
      "type": "function"
    },
    {
      "constant": true,
      "inputs": [],
      "name": "getGlobalPrice",
      "outputs": [
        {
          "internalType": "uint256",
          "name": "",
          "type": "uint256"
        }
      ],
      "payable": false,
      "stateMutability": "view",
      "type": "function"
    },
    {
      "constant": false,
      "inputs": [
        {
          "internalType": "uint256",
          "name": "_price",
          "type": "uint256"
        }
      ],
      "name": "setGlobalPrice",
      "outputs": [],
      "payable": false,
      "stateMutability": "nonpayable",
      "type": "function"
    },
    {
      "constant": false,
      "inputs": [],
      "name": "deposit",
      "outputs": [
        {
          "internalType": "uint256",
          "name": "",
          "type": "uint256"
        },
        {
          "internalType": "uint256",
          "name": "",
          "type": "uint256"
        }
      ],
      "payable": true,
      "stateMutability": "payable",
      "type": "function"
    },
    {
      "constant": false,
      "inputs": [
        {
          "internalType": "string",
          "name": "_custName",
          "type": "string"
        },
        {
          "internalType": "string",
          "name": "_street",
          "type": "string"
        },
        {
          "internalType": "string",
          "name": "_city",
          "type": "string"
        },
        {
          "internalType": "string",
          "name": "_state",
          "type": "string"
        },
        {
          "internalType": "string",
          "name": "_phone",
          "type": "string"
        }
      ],
      "name": "updateUserAddress",
      "outputs": [],
      "payable": false,
      "stateMutability": "nonpayable",
      "type": "function"
    },
    {
      "constant": false,
      "inputs": [
        {
          "internalType": "uint256",
          "name": "vehicleID",
          "type": "uint256"
        },
        {
          "internalType": "uint256",
          "name": "_count",
          "type": "uint256"
        }
      ],
      "name": "select",
      "outputs": [
        {
          "internalType": "bool",
          "name": "",
          "type": "bool"
        }
      ],
      "payable": true,
      "stateMutability": "payable",
      "type": "function"
    },
    {
      "constant": false,
      "inputs": [
        {
          "internalType": "uint256",
          "name": "vehicleID",
          "type": "uint256"
        }
      ],
      "name": "sellVehicle",
      "outputs": [
        {
          "internalType": "bool",
          "name": "",
          "type": "bool"
        }
      ],
      "payable": true,
      "stateMutability": "payable",
      "type": "function"
    },
    {
      "constant": false,
      "inputs": [],
      "name": "coinReturn",
      "outputs": [],
      "payable": true,
      "stateMutability": "payable",
      "type": "function"
    },
    {
      "constant": true,
      "inputs": [],
      "name": "getRegCounts",
      "outputs": [
        {
          "internalType": "uint256",
          "name": "",
          "type": "uint256"
        },
        {
          "internalType": "uint256",
          "name": "",
          "type": "uint256"
        },
        {
          "internalType": "uint256",
          "name": "",
          "type": "uint256"
        },
        {
          "internalType": "uint256",
          "name": "",
          "type": "uint256"
        },
        {
          "internalType": "uint256",
          "name": "",
          "type": "uint256"
        }
      ],
      "payable": false,
      "stateMutability": "view",
      "type": "function"
    }
  ],
  "bytecode": "0x608060405260006002553480156200001657600080fd5b5066038d7ea4c68000600181905550336000806101000a81548173ffffffffffffffffffffffffffffffffffffffff021916908373ffffffffffffffffffffffffffffffffffffffff160217905550620000ab6040518060400160405280600581526020017f5363696f6e000000000000000000000000000000000000000000000000000000815250620001c960201b60201c565b620000f16040518060400160405280600581526020017f4369766963000000000000000000000000000000000000000000000000000000815250620001c960201b60201c565b620001376040518060400160405280600581526020017f5669706572000000000000000000000000000000000000000000000000000000815250620001c960201b60201c565b6200017d6040518060400160405280600781526020017f4665727261726900000000000000000000000000000000000000000000000000815250620001c960201b60201c565b620001c36040518060400160405280600581526020017f4c65787573000000000000000000000000000000000000000000000000000000815250620001c960201b60201c565b620002f7565b600260008154809291906001019190505550604051806060016040528060025481526020018281526020016001548152506003600060025481526020019081526020016000206000820151816000015560208201518160010190805190602001906200023792919062000248565b506040820151816002015590505050565b828054600181600116156101000203166002900490600052602060002090601f016020900481019282601f106200028b57805160ff1916838001178555620002bc565b82800160010185558215620002bc579182015b82811115620002bb5782518255916020019190600101906200029e565b5b509050620002cb9190620002cf565b5090565b620002f491905b80821115620002f0576000816000905550600101620002d6565b5090565b90565b6124e980620003076000396000f3fe6080604052600436106100dd5760003560e01c80637150d8ae1161007f578063b8ba95fa11610059578063b8ba95fa146107e2578063b9316f97146108a4578063bb9aca6614610bc8578063d0e30db014610c18576100dd565b80637150d8ae1461059d57806389609a00146105f4578063b484eff714610753576100dd565b8063360500cc116100bb578063360500cc1461016d57806339b6357f146103e75780635244ed711461042e578063552e740514610459576100dd565b80630fe600d9146100e2578063134b9cf9146100ec5780632e1b572814610132575b600080fd5b6100ea610c3d565b005b6101186004803603602081101561010257600080fd5b8101908080359060200190929190505050610ef7565b604051808215151515815260200191505060405180910390f35b34801561013e57600080fd5b5061016b6004803603602081101561015557600080fd5b81019080803590602001909291905050506112a9565b005b34801561017957600080fd5b506101bc6004803603602081101561019057600080fd5b81019080803573ffffffffffffffffffffffffffffffffffffffff1690602001909291905050506112bb565b60405180806020018060200180602001806020018060200186810386528b818151815260200191508051906020019080838360005b8381101561020c5780820151818401526020810190506101f1565b50505050905090810190601f1680156102395780820380516001836020036101000a031916815260200191505b5086810385528a818151815260200191508051906020019080838360005b83811015610272578082015181840152602081019050610257565b50505050905090810190601f16801561029f5780820380516001836020036101000a031916815260200191505b50868103845289818151815260200191508051906020019080838360005b838110156102d85780820151818401526020810190506102bd565b50505050905090810190601f1680156103055780820380516001836020036101000a031916815260200191505b50868103835288818151815260200191508051906020019080838360005b8381101561033e578082015181840152602081019050610323565b50505050905090810190601f16801561036b5780820380516001836020036101000a031916815260200191505b50868103825287818151815260200191508051906020019080838360005b838110156103a4578082015181840152602081019050610389565b50505050905090810190601f1680156103d15780820380516001836020036101000a031916815260200191505b509a505050505050505050505060405180910390f35b3480156103f357600080fd5b506103fc6115e9565b604051808681526020018581526020018481526020018381526020018281526020019550505050505060405180910390f35b34801561043a57600080fd5b506104436117f6565b6040518082815260200191505060405180910390f35b34801561046557600080fd5b506104a86004803603602081101561047c57600080fd5b81019080803573ffffffffffffffffffffffffffffffffffffffff169060200190929190505050611800565b604051808060200180602001858152602001848152602001838103835287818151815260200191508051906020019080838360005b838110156104f85780820151818401526020810190506104dd565b50505050905090810190601f1680156105255780820380516001836020036101000a031916815260200191505b50838103825286818151815260200191508051906020019080838360005b8381101561055e578082015181840152602081019050610543565b50505050905090810190601f16801561058b5780820380516001836020036101000a031916815260200191505b50965050505050505060405180910390f35b3480156105a957600080fd5b506105b2611960565b604051808273ffffffffffffffffffffffffffffffffffffffff1673ffffffffffffffffffffffffffffffffffffffff16815260200191505060405180910390f35b34801561060057600080fd5b506107516004803603604081101561061757600080fd5b810190808035906020019064010000000081111561063457600080fd5b82018360208201111561064657600080fd5b8035906020019184600183028401116401000000008311171561066857600080fd5b91908080601f016020809104026020016040519081016040528093929190818152602001838380828437600081840152601f19601f820116905080830192505050505050509192919290803590602001906401000000008111156106cb57600080fd5b8201836020820111156106dd57600080fd5b803590602001918460018302840111640100000000831117156106ff57600080fd5b91908080601f016020809104026020016040519081016040528093929190818152602001838380828437600081840152601f19601f820116905080830192505050505050509192919290505050611985565b005b34801561075f57600080fd5b506107a26004803603602081101561077657600080fd5b81019080803573ffffffffffffffffffffffffffffffffffffffff169060200190929190505050611acd565b6040518088815260200187815260200186815260200185815260200184815260200183815260200182815260200197505050505050505060405180910390f35b3480156107ee57600080fd5b5061081b6004803603602081101561080557600080fd5b8101908080359060200190929190505050611b0f565b6040518084815260200180602001838152602001828103825284818151815260200191508051906020019080838360005b8381101561086757808201518184015260208101905061084c565b50505050905090810190601f1680156108945780820380516001836020036101000a031916815260200191505b5094505050505060405180910390f35b3480156108b057600080fd5b50610bc6600480360360a08110156108c757600080fd5b81019080803590602001906401000000008111156108e457600080fd5b8201836020820111156108f657600080fd5b8035906020019184600183028401116401000000008311171561091857600080fd5b91908080601f016020809104026020016040519081016040528093929190818152602001838380828437600081840152601f19601f8201169050808301925050505050505091929192908035906020019064010000000081111561097b57600080fd5b82018360208201111561098d57600080fd5b803590602001918460018302840111640100000000831117156109af57600080fd5b91908080601f016020809104026020016040519081016040528093929190818152602001838380828437600081840152601f19601f82011690508083019250505050505050919291929080359060200190640100000000811115610a1257600080fd5b820183602082011115610a2457600080fd5b80359060200191846001830284011164010000000083111715610a4657600080fd5b91908080601f016020809104026020016040519081016040528093929190818152602001838380828437600081840152601f19601f82011690508083019250505050505050919291929080359060200190640100000000811115610aa957600080fd5b820183602082011115610abb57600080fd5b80359060200191846001830284011164010000000083111715610add57600080fd5b91908080601f016020809104026020016040519081016040528093929190818152602001838380828437600081840152601f19601f82011690508083019250505050505050919291929080359060200190640100000000811115610b4057600080fd5b820183602082011115610b5257600080fd5b80359060200191846001830284011164010000000083111715610b7457600080fd5b91908080601f016020809104026020016040519081016040528093929190818152602001838380828437600081840152601f19601f820116905080830192505050505050509192919290505050611bd1565b005b610bfe60048036036040811015610bde57600080fd5b810190808035906020019092919080359060200190929190505050611d8b565b604051808215151515815260200191505060405180910390f35b610c2061216a565b604051808381526020018281526020019250505060405180910390f35b336000806101000a81548173ffffffffffffffffffffffffffffffffffffffff021916908373ffffffffffffffffffffffffffffffffffffffff1602179055506000600560008060009054906101000a900473ffffffffffffffffffffffffffffffffffffffff1673ffffffffffffffffffffffffffffffffffffffff1673ffffffffffffffffffffffffffffffffffffffff1681526020019081526020016000206000015411610d56576040517f08c379a00000000000000000000000000000000000000000000000000000000081526004018080602001828103825260198152602001807f4572726f723a204e6f2066756e647320746f2072657475726e0000000000000081525060200191505060405180910390fd5b6000809054906101000a900473ffffffffffffffffffffffffffffffffffffffff1673ffffffffffffffffffffffffffffffffffffffff166108fc600560008060009054906101000a900473ffffffffffffffffffffffffffffffffffffffff1673ffffffffffffffffffffffffffffffffffffffff1673ffffffffffffffffffffffffffffffffffffffff168152602001908152602001600020600001549081150290604051600060405180830381858888f19350505050158015610e20573d6000803e3d6000fd5b50600560008060009054906101000a900473ffffffffffffffffffffffffffffffffffffffff1673ffffffffffffffffffffffffffffffffffffffff1673ffffffffffffffffffffffffffffffffffffffff16815260200190815260200160002060000154600560008060009054906101000a900473ffffffffffffffffffffffffffffffffffffffff1673ffffffffffffffffffffffffffffffffffffffff1673ffffffffffffffffffffffffffffffffffffffff16815260200190815260200160002060000160008282540392505081905550565b6000336000806101000a81548173ffffffffffffffffffffffffffffffffffffffff021916908373ffffffffffffffffffffffffffffffffffffffff1602179055506003600083815260200190815260200160002060020154600560008060009054906101000a900473ffffffffffffffffffffffffffffffffffffffff1673ffffffffffffffffffffffffffffffffffffffff1673ffffffffffffffffffffffffffffffffffffffff168152602001908152602001600020600001541015611028576040517f08c379a00000000000000000000000000000000000000000000000000000000081526004018080602001828103825260198152602001807f4572726f723a20496e73756666696369656e742046756e64730000000000000081525060200191505060405180910390fd5b60006003600084815260200190815260200160002060020154905060018314156110ba576000600560008060009054906101000a900473ffffffffffffffffffffffffffffffffffffffff1673ffffffffffffffffffffffffffffffffffffffff1673ffffffffffffffffffffffffffffffffffffffff16815260200190815260200160002060010181905550611296565b6002831415611131576000600560008060009054906101000a900473ffffffffffffffffffffffffffffffffffffffff1673ffffffffffffffffffffffffffffffffffffffff1673ffffffffffffffffffffffffffffffffffffffff16815260200190815260200160002060020181905550611295565b60038314156111a8576000600560008060009054906101000a900473ffffffffffffffffffffffffffffffffffffffff1673ffffffffffffffffffffffffffffffffffffffff1673ffffffffffffffffffffffffffffffffffffffff16815260200190815260200160002060030181905550611294565b600483141561121f576000600560008060009054906101000a900473ffffffffffffffffffffffffffffffffffffffff1673ffffffffffffffffffffffffffffffffffffffff1673ffffffffffffffffffffffffffffffffffffffff16815260200190815260200160002060040181905550611293565b6005831415611292576000600560008060009054906101000a900473ffffffffffffffffffffffffffffffffffffffff1673ffffffffffffffffffffffffffffffffffffffff1673ffffffffffffffffffffffffffffffffffffffff168152602001908152602001600020600501819055505b5b5b5b5b61129f81612303565b6001915050919050565b806001819055506112b8612377565b50565b6006602052806000526040600020600091509050806000018054600181600116156101000203166002900480601f0160208091040260200160405190810160405280929190818152602001828054600181600116156101000203166002900480156113675780601f1061133c57610100808354040283529160200191611367565b820191906000526020600020905b81548152906001019060200180831161134a57829003601f168201915b505050505090806001018054600181600116156101000203166002900480601f0160208091040260200160405190810160405280929190818152602001828054600181600116156101000203166002900480156114055780601f106113da57610100808354040283529160200191611405565b820191906000526020600020905b8154815290600101906020018083116113e857829003601f168201915b505050505090806002018054600181600116156101000203166002900480601f0160208091040260200160405190810160405280929190818152602001828054600181600116156101000203166002900480156114a35780601f10611478576101008083540402835291602001916114a3565b820191906000526020600020905b81548152906001019060200180831161148657829003601f168201915b505050505090806003018054600181600116156101000203166002900480601f0160208091040260200160405190810160405280929190818152602001828054600181600116156101000203166002900480156115415780601f1061151657610100808354040283529160200191611541565b820191906000526020600020905b81548152906001019060200180831161152457829003601f168201915b505050505090806004018054600181600116156101000203166002900480601f0160208091040260200160405190810160405280929190818152602001828054600181600116156101000203166002900480156115df5780601f106115b4576101008083540402835291602001916115df565b820191906000526020600020905b8154815290600101906020018083116115c257829003601f168201915b5050505050905085565b6000806000806000600560008060009054906101000a900473ffffffffffffffffffffffffffffffffffffffff1673ffffffffffffffffffffffffffffffffffffffff1673ffffffffffffffffffffffffffffffffffffffff16815260200190815260200160002060010154600560008060009054906101000a900473ffffffffffffffffffffffffffffffffffffffff1673ffffffffffffffffffffffffffffffffffffffff1673ffffffffffffffffffffffffffffffffffffffff16815260200190815260200160002060020154600560008060009054906101000a900473ffffffffffffffffffffffffffffffffffffffff1673ffffffffffffffffffffffffffffffffffffffff1673ffffffffffffffffffffffffffffffffffffffff16815260200190815260200160002060030154600560008060009054906101000a900473ffffffffffffffffffffffffffffffffffffffff1673ffffffffffffffffffffffffffffffffffffffff1673ffffffffffffffffffffffffffffffffffffffff16815260200190815260200160002060040154600560008060009054906101000a900473ffffffffffffffffffffffffffffffffffffffff1673ffffffffffffffffffffffffffffffffffffffff1673ffffffffffffffffffffffffffffffffffffffff16815260200190815260200160002060050154945094509450945094509091929394565b6000600154905090565b6004602052806000526040600020600091509050806000018054600181600116156101000203166002900480601f0160208091040260200160405190810160405280929190818152602001828054600181600116156101000203166002900480156118ac5780601f10611881576101008083540402835291602001916118ac565b820191906000526020600020905b81548152906001019060200180831161188f57829003601f168201915b505050505090806001018054600181600116156101000203166002900480601f01602080910402602001604051908101604052809291908181526020018280546001816001161561010002031660029004801561194a5780601f1061191f5761010080835404028352916020019161194a565b820191906000526020600020905b81548152906001019060200180831161192d57829003601f168201915b5050505050908060020154908060030154905084565b6000809054906101000a900473ffffffffffffffffffffffffffffffffffffffff1681565b81600460003373ffffffffffffffffffffffffffffffffffffffff1673ffffffffffffffffffffffffffffffffffffffff16815260200190815260200160002060000190805190602001906119db92919061240f565b5080600460003373ffffffffffffffffffffffffffffffffffffffff1673ffffffffffffffffffffffffffffffffffffffff1681526020019081526020016000206001019080519060200190611a3292919061240f565b5066038d7ea4c68000600460003373ffffffffffffffffffffffffffffffffffffffff1673ffffffffffffffffffffffffffffffffffffffff168152602001908152602001600020600201819055506001600460003373ffffffffffffffffffffffffffffffffffffffff1673ffffffffffffffffffffffffffffffffffffffff168152602001908152602001600020600301819055505050565b60056020528060005260406000206000915090508060000154908060010154908060020154908060030154908060040154908060050154908060060154905087565b6003602052806000526040600020600091509050806000015490806001018054600181600116156101000203166002900480601f016020809104026020016040519081016040528092919081815260200182805460018160011615610100020316600290048015611bc15780601f10611b9657610100808354040283529160200191611bc1565b820191906000526020600020905b815481529060010190602001808311611ba457829003601f168201915b5050505050908060020154905083565b84600660003373ffffffffffffffffffffffffffffffffffffffff1673ffffffffffffffffffffffffffffffffffffffff1681526020019081526020016000206000019080519060200190611c2792919061240f565b5083600660003373ffffffffffffffffffffffffffffffffffffffff1673ffffffffffffffffffffffffffffffffffffffff1681526020019081526020016000206001019080519060200190611c7e92919061240f565b5082600660003373ffffffffffffffffffffffffffffffffffffffff1673ffffffffffffffffffffffffffffffffffffffff1681526020019081526020016000206002019080519060200190611cd592919061240f565b5081600660003373ffffffffffffffffffffffffffffffffffffffff1673ffffffffffffffffffffffffffffffffffffffff1681526020019081526020016000206003019080519060200190611d2c92919061240f565b5080600660003373ffffffffffffffffffffffffffffffffffffffff1673ffffffffffffffffffffffffffffffffffffffff1681526020019081526020016000206004019080519060200190611d8392919061240f565b505050505050565b6000336000806101000a81548173ffffffffffffffffffffffffffffffffffffffff021916908373ffffffffffffffffffffffffffffffffffffffff16021790555060036000848152602001908152602001600020600201548202600560008060009054906101000a900473ffffffffffffffffffffffffffffffffffffffff1673ffffffffffffffffffffffffffffffffffffffff1673ffffffffffffffffffffffffffffffffffffffff168152602001908152602001600020600001541015611ebe576040517f08c379a00000000000000000000000000000000000000000000000000000000081526004018080602001828103825260198152602001807f4572726f723a20496e73756666696369656e742046756e64730000000000000081525060200191505060405180910390fd5b60006003600085815260200190815260200160002060020154830290506001841415611f5a5782600560008060009054906101000a900473ffffffffffffffffffffffffffffffffffffffff1673ffffffffffffffffffffffffffffffffffffffff1673ffffffffffffffffffffffffffffffffffffffff16815260200190815260200160002060010160008282540192505081905550612156565b6002841415611fd95782600560008060009054906101000a900473ffffffffffffffffffffffffffffffffffffffff1673ffffffffffffffffffffffffffffffffffffffff1673ffffffffffffffffffffffffffffffffffffffff16815260200190815260200160002060020160008282540192505081905550612155565b60038414156120585782600560008060009054906101000a900473ffffffffffffffffffffffffffffffffffffffff1673ffffffffffffffffffffffffffffffffffffffff1673ffffffffffffffffffffffffffffffffffffffff16815260200190815260200160002060030160008282540192505081905550612154565b60048414156120d75782600560008060009054906101000a900473ffffffffffffffffffffffffffffffffffffffff1673ffffffffffffffffffffffffffffffffffffffff1673ffffffffffffffffffffffffffffffffffffffff16815260200190815260200160002060040160008282540192505081905550612153565b60058414156121525782600560008060009054906101000a900473ffffffffffffffffffffffffffffffffffffffff1673ffffffffffffffffffffffffffffffffffffffff1673ffffffffffffffffffffffffffffffffffffffff168152602001908152602001600020600501600082825401925050819055505b5b5b5b5b61215f81612303565b600191505092915050565b6000806001543410156121e5576040517f08c379a00000000000000000000000000000000000000000000000000000000081526004018080602001828103825260058152602001807f4572726f7200000000000000000000000000000000000000000000000000000081525060200191505060405180910390fd5b336000806101000a81548173ffffffffffffffffffffffffffffffffffffffff021916908373ffffffffffffffffffffffffffffffffffffffff16021790555034600560008060009054906101000a900473ffffffffffffffffffffffffffffffffffffffff1673ffffffffffffffffffffffffffffffffffffffff1673ffffffffffffffffffffffffffffffffffffffff1681526020019081526020016000206000016000828254019250508190555047600560008060009054906101000a900473ffffffffffffffffffffffffffffffffffffffff1673ffffffffffffffffffffffffffffffffffffffff1673ffffffffffffffffffffffffffffffffffffffff16815260200190815260200160002060000154915091509091565b80600560008060009054906101000a900473ffffffffffffffffffffffffffffffffffffffff1673ffffffffffffffffffffffffffffffffffffffff1673ffffffffffffffffffffffffffffffffffffffff1681526020019081526020016000206000016000828254039250508190555050565b600154600360006001815260200190815260200160002060020181905550600154600360006002815260200190815260200160002060020181905550600154600360006003815260200190815260200160002060020181905550600154600360006004815260200190815260200160002060020181905550600154600360006005815260200190815260200160002060020181905550565b828054600181600116156101000203166002900490600052602060002090601f016020900481019282601f1061245057805160ff191683800117855561247e565b8280016001018555821561247e579182015b8281111561247d578251825591602001919060010190612462565b5b50905061248b919061248f565b5090565b6124b191905b808211156124ad576000816000905550600101612495565b5090565b9056fea265627a7a723158200f61bbc7dd4ea5463f20ca357aee57e02e0280acf99cc95e92a45c98b236fdad64736f6c63430005100032",
  "source": "pragma solidity >=0.4.22 <0.6.0;\r\n\r\ncontract DMV {\r\n    address payable public buyer;\r\n    uint256 globalPrice;\r\n\r\n    struct Vehicles {\r\n        uint256 id;\r\n        string name;\r\n        uint256 cost;\r\n    }\r\n    struct VehicleOther {\r\n        string year;\r\n        string vehicleBrand;\r\n        uint256 cost;\r\n        uint256 yearsReg;\r\n    }\r\n    struct Purchases {\r\n        uint256 purse;\r\n        uint256 scionRenewCount;\r\n        uint256 civicRenewCount;\r\n        uint256 viperRenewCount;\r\n        uint256 ferrariRenewCount;\r\n        uint256 lexusRenewCount;\r\n        uint256 otherRenewCount;\r\n    }\r\n    struct AddressDetails{\r\n        string custName;\r\n        string street;\r\n        string city;\r\n        string state;\r\n        string phone;\r\n    }\r\n\r\n    uint256 numVehicleRegistrations = 0;\r\n\r\n    mapping(uint256 => Vehicles) public vehicles;\r\n    mapping(address => VehicleOther) public otherVehicle;\r\n    mapping(address => Purchases) public userPurchase;\r\n    mapping(address => AddressDetails) public userAddress;\r\n\r\n    constructor() public {\r\n        globalPrice = 1000000000000000; // 0.001 Eth\r\n        buyer = msg.sender;\r\n        addVehicle(\"Scion\");\r\n        addVehicle(\"Civic\");\r\n        addVehicle(\"Viper\");\r\n        addVehicle(\"Ferrari\");\r\n        addVehicle(\"Lexus\");\r\n    }\r\n\r\n    function addVehicle(string memory _name) private {\r\n        numVehicleRegistrations++;\r\n        vehicles[numVehicleRegistrations] = Vehicles(\r\n            numVehicleRegistrations,\r\n            _name,\r\n            globalPrice\r\n        );\r\n    }\r\n\r\n     function addOtherVehicle(string memory _year, string memory _brand) public {\r\n        otherVehicle[msg.sender].year = _year;\r\n        otherVehicle[msg.sender].vehicleBrand = _brand;\r\n        otherVehicle[msg.sender].cost = 1000000000000000;\r\n        otherVehicle[msg.sender].yearsReg = 1;\r\n    }\r\n\r\n    function getGlobalPrice() public view returns (uint256) {\r\n        return globalPrice;\r\n    }\r\n\r\n    function setGlobalPrice(uint256 _price) public {\r\n        globalPrice = _price;\r\n        setVehicleRegCost();\r\n    }\r\n\r\n    function setVehicleRegCost() private {\r\n        vehicles[1].cost = globalPrice;\r\n        vehicles[2].cost = globalPrice;\r\n        vehicles[3].cost = globalPrice;\r\n        vehicles[4].cost = globalPrice;\r\n        vehicles[5].cost = globalPrice;\r\n    }\r\n\r\n    function deposit() public payable returns (uint256, uint256) {\r\n        require(msg.value >= globalPrice, \"Error\");\r\n        buyer = msg.sender;\r\n        userPurchase[buyer].purse += msg.value;\r\n        return (address(this).balance, userPurchase[buyer].purse);\r\n    }\r\n\r\n    function updateUserBalance(uint256 _totalCost) private {\r\n        userPurchase[buyer].purse -= _totalCost;\r\n    }\r\n\r\n    function updateUserAddress(string memory _custName, string memory _street, string memory _city, string memory _state, string memory _phone) public {\r\n        userAddress[msg.sender].custName = _custName;\r\n        userAddress[msg.sender].street = _street;\r\n        userAddress[msg.sender].city = _city;\r\n        userAddress[msg.sender].state = _state;\r\n        userAddress[msg.sender].phone = _phone;\r\n    }\r\n\r\n    function select(uint256 vehicleID, uint256 _count)\r\n        public\r\n        payable\r\n        returns (bool)\r\n    {\r\n        buyer = msg.sender;\r\n\r\n        //Check balance is enough to cover purchase\r\n        require(\r\n            userPurchase[buyer].purse >= (_count * vehicles[vehicleID].cost),\r\n            \"Error: Insufficient Funds\"\r\n        );\r\n\r\n        uint256 totalCost = _count * vehicles[vehicleID].cost;\r\n        if (vehicleID == 1) {\r\n            userPurchase[buyer].scionRenewCount += _count;\r\n        } else if (vehicleID == 2) {\r\n            userPurchase[buyer].civicRenewCount += _count;\r\n        } else if (vehicleID == 3) {\r\n            userPurchase[buyer].viperRenewCount += _count;\r\n        } else if (vehicleID == 4) {\r\n            userPurchase[buyer].ferrariRenewCount += _count;\r\n        }\r\n        else if (vehicleID == 5) {\r\n            userPurchase[buyer].lexusRenewCount += _count;\r\n        }\r\n        updateUserBalance(totalCost);\r\n        return true;\r\n    }\r\n\r\n       function sellVehicle(uint256 vehicleID)\r\n        public\r\n        payable\r\n        returns (bool)\r\n    {\r\n        buyer = msg.sender;\r\n        require(\r\n            userPurchase[buyer].purse >= (vehicles[vehicleID].cost),\r\n            \"Error: Insufficient Funds\"\r\n        );\r\n\r\n        uint256 totalCost = vehicles[vehicleID].cost;\r\n\r\n        if (vehicleID == 1) {\r\n            userPurchase[buyer].scionRenewCount = 0;\r\n        } else if (vehicleID == 2) {\r\n            userPurchase[buyer].civicRenewCount = 0;\r\n        } else if (vehicleID == 3) {\r\n            userPurchase[buyer].viperRenewCount = 0;\r\n        } else if (vehicleID == 4) {\r\n            userPurchase[buyer].ferrariRenewCount = 0;\r\n        }\r\n         else if (vehicleID == 5) {\r\n            userPurchase[buyer].lexusRenewCount = 0;\r\n        }\r\n        updateUserBalance(totalCost);\r\n        return true;\r\n    }\r\n\r\n    function coinReturn() public payable {\r\n        buyer = msg.sender;\r\n        require(userPurchase[buyer].purse > 0, \"Error: No funds to return\");\r\n\r\n        buyer.transfer(userPurchase[buyer].purse);\r\n        userPurchase[buyer].purse -= userPurchase[buyer].purse;\r\n    }\r\n\r\n    function getRegCounts()\r\n        public\r\n        view\r\n        returns (\r\n            uint256,\r\n            uint256,\r\n            uint256,\r\n            uint256,\r\n            uint256\r\n        )\r\n    {\r\n        return (\r\n            userPurchase[buyer].scionRenewCount,\r\n            userPurchase[buyer].civicRenewCount,\r\n            userPurchase[buyer].viperRenewCount,\r\n            userPurchase[buyer].ferrariRenewCount,\r\n            userPurchase[buyer].lexusRenewCount\r\n        );\r\n    }\r\n}\r\n",
  "sourcePath": "C:\\Users\\aranb\\Desktop\\DMV dApp\\contracts\\DMV.sol",
  "compiler": {
    "name": "solc",
    "version": "0.5.16+commit.9c3226ce.Emscripten.clang"
  },
  "schemaVersion": "3.4.7",
  "updatedAt": "2022-05-01T21:57:03.057Z",
  "devdoc": {
    "methods": {}
  },
  "userdoc": {
    "methods": {}
  }
}