{
  "contractName": "DMV",
  "abi": [
    {
      "inputs": [],
      "payable": false,
      "stateMutability": "nonpayable",
      "type": "constructor"
    },
    {
      "constant": true,
      "inputs": [
        {
          "internalType": "uint256",
          "name": "",
          "type": "uint256"
        }
      ],
      "name": "beverages",
      "outputs": [
        {
          "internalType": "uint256",
          "name": "id",
          "type": "uint256"
        },
        {
          "internalType": "string",
          "name": "name",
          "type": "string"
        },
        {
          "internalType": "uint256",
          "name": "cost",
          "type": "uint256"
        },
        {
          "internalType": "uint256",
          "name": "lifeTimeCount",
          "type": "uint256"
        }
      ],
      "payable": false,
      "stateMutability": "view",
      "type": "function"
    },
    {
      "constant": true,
      "inputs": [],
      "name": "buyer",
      "outputs": [
        {
          "internalType": "address payable",
          "name": "",
          "type": "address"
        }
      ],
      "payable": false,
      "stateMutability": "view",
      "type": "function"
    },
    {
      "constant": true,
      "inputs": [
        {
          "internalType": "address",
          "name": "",
          "type": "address"
        }
      ],
      "name": "userPurchase",
      "outputs": [
        {
          "internalType": "uint256",
          "name": "purse",
          "type": "uint256"
        },
        {
          "internalType": "uint256",
          "name": "cokePurchaseCount",
          "type": "uint256"
        },
        {
          "internalType": "uint256",
          "name": "pepsiPurchaseCount",
          "type": "uint256"
        },
        {
          "internalType": "uint256",
          "name": "drpPurchaseCount",
          "type": "uint256"
        },
        {
          "internalType": "uint256",
          "name": "dewPurchaseCount",
          "type": "uint256"
        }
      ],
      "payable": false,
      "stateMutability": "view",
      "type": "function"
    },
    {
      "constant": true,
      "inputs": [],
      "name": "getPrice",
      "outputs": [
        {
          "internalType": "uint256",
          "name": "",
          "type": "uint256"
        }
      ],
      "payable": false,
      "stateMutability": "view",
      "type": "function"
    },
    {
      "constant": false,
      "inputs": [
        {
          "internalType": "uint256",
          "name": "_price",
          "type": "uint256"
        }
      ],
      "name": "setPrice",
      "outputs": [],
      "payable": false,
      "stateMutability": "nonpayable",
      "type": "function"
    },
    {
      "constant": false,
      "inputs": [],
      "name": "deposit",
      "outputs": [
        {
          "internalType": "uint256",
          "name": "",
          "type": "uint256"
        },
        {
          "internalType": "uint256",
          "name": "",
          "type": "uint256"
        }
      ],
      "payable": true,
      "stateMutability": "payable",
      "type": "function"
    },
    {
      "constant": false,
      "inputs": [
        {
          "internalType": "uint256",
          "name": "_beverageID",
          "type": "uint256"
        },
        {
          "internalType": "uint256",
          "name": "_count",
          "type": "uint256"
        }
      ],
      "name": "select",
      "outputs": [
        {
          "internalType": "bool",
          "name": "",
          "type": "bool"
        }
      ],
      "payable": true,
      "stateMutability": "payable",
      "type": "function"
    },
    {
      "constant": false,
      "inputs": [],
      "name": "coinReturn",
      "outputs": [],
      "payable": true,
      "stateMutability": "payable",
      "type": "function"
    }
  ],
  "bytecode": "0x608060405260006002553480156200001657600080fd5b5066038d7ea4c68000600181905550336000806101000a81548173ffffffffffffffffffffffffffffffffffffffff021916908373ffffffffffffffffffffffffffffffffffffffff160217905550620000ab6040518060400160405280600481526020017f436f6b65000000000000000000000000000000000000000000000000000000008152506200018360201b60201c565b620000f16040518060400160405280600581526020017f50657073690000000000000000000000000000000000000000000000000000008152506200018360201b60201c565b620001376040518060400160405280600a81526020017f44722e20506570706572000000000000000000000000000000000000000000008152506200018360201b60201c565b6200017d6040518060400160405280600c81526020017f4d6f756e7461696e2044657700000000000000000000000000000000000000008152506200018360201b60201c565b620002c2565b6002600081548092919060010191905055506040518060800160405280600254815260200182815260200160015481526020016000815250600360006002548152602001908152602001600020600082015181600001556020820151816001019080519060200190620001f892919062000213565b50604082015181600201556060820151816003015590505050565b828054600181600116156101000203166002900490600052602060002090601f016020900481019282601f106200025657805160ff191683800117855562000287565b8280016001018555821562000287579182015b828111156200028657825182559160200191906001019062000269565b5b5090506200029691906200029a565b5090565b620002bf91905b80821115620002bb576000816000905550600101620002a1565b5090565b90565b610de180620002d26000396000f3fe60806040526004361061007b5760003560e01c806398d5fdca1161004e57806398d5fdca146101e5578063b484eff714610210578063bb9aca6614610291578063d0e30db0146102e15761007b565b80630fe600d914610080578063523f17b81461008a5780637150d8ae1461015357806391b7f5ed146101aa575b600080fd5b610088610306565b005b34801561009657600080fd5b506100c3600480360360208110156100ad57600080fd5b81019080803590602001909291905050506105c0565b6040518085815260200180602001848152602001838152602001828103825285818151815260200191508051906020019080838360005b838110156101155780820151818401526020810190506100fa565b50505050905090810190601f1680156101425780820380516001836020036101000a031916815260200191505b509550505050505060405180910390f35b34801561015f57600080fd5b50610168610688565b604051808273ffffffffffffffffffffffffffffffffffffffff1673ffffffffffffffffffffffffffffffffffffffff16815260200191505060405180910390f35b3480156101b657600080fd5b506101e3600480360360208110156101cd57600080fd5b81019080803590602001909291905050506106ad565b005b3480156101f157600080fd5b506101fa6106bf565b6040518082815260200191505060405180910390f35b34801561021c57600080fd5b5061025f6004803603602081101561023357600080fd5b81019080803573ffffffffffffffffffffffffffffffffffffffff1690602001909291905050506106c9565b604051808681526020018581526020018481526020018381526020018281526020019550505050505060405180910390f35b6102c7600480360360408110156102a757600080fd5b8101908080359060200190929190803590602001909291905050506106ff565b604051808215151515815260200191505060405180910390f35b6102e9610b04565b604051808381526020018281526020019250505060405180910390f35b336000806101000a81548173ffffffffffffffffffffffffffffffffffffffff021916908373ffffffffffffffffffffffffffffffffffffffff1602179055506000600460008060009054906101000a900473ffffffffffffffffffffffffffffffffffffffff1673ffffffffffffffffffffffffffffffffffffffff1673ffffffffffffffffffffffffffffffffffffffff168152602001908152602001600020600001541161041f576040517f08c379a00000000000000000000000000000000000000000000000000000000081526004018080602001828103825260198152602001807f4572726f723a204e6f2066756e647320746f2072657475726e0000000000000081525060200191505060405180910390fd5b6000809054906101000a900473ffffffffffffffffffffffffffffffffffffffff1673ffffffffffffffffffffffffffffffffffffffff166108fc600460008060009054906101000a900473ffffffffffffffffffffffffffffffffffffffff1673ffffffffffffffffffffffffffffffffffffffff1673ffffffffffffffffffffffffffffffffffffffff168152602001908152602001600020600001549081150290604051600060405180830381858888f193505050501580156104e9573d6000803e3d6000fd5b50600460008060009054906101000a900473ffffffffffffffffffffffffffffffffffffffff1673ffffffffffffffffffffffffffffffffffffffff1673ffffffffffffffffffffffffffffffffffffffff16815260200190815260200160002060000154600460008060009054906101000a900473ffffffffffffffffffffffffffffffffffffffff1673ffffffffffffffffffffffffffffffffffffffff1673ffffffffffffffffffffffffffffffffffffffff16815260200190815260200160002060000160008282540392505081905550565b6003602052806000526040600020600091509050806000015490806001018054600181600116156101000203166002900480601f0160208091040260200160405190810160405280929190818152602001828054600181600116156101000203166002900480156106725780601f1061064757610100808354040283529160200191610672565b820191906000526020600020905b81548152906001019060200180831161065557829003601f168201915b5050505050908060020154908060030154905084565b6000809054906101000a900473ffffffffffffffffffffffffffffffffffffffff1681565b806001819055506106bc610c80565b50565b6000600154905090565b60046020528060005260406000206000915090508060000154908060010154908060020154908060030154908060040154905085565b6000336000806101000a81548173ffffffffffffffffffffffffffffffffffffffff021916908373ffffffffffffffffffffffffffffffffffffffff16021790555060036000848152602001908152602001600020600201548202600460008060009054906101000a900473ffffffffffffffffffffffffffffffffffffffff1673ffffffffffffffffffffffffffffffffffffffff1673ffffffffffffffffffffffffffffffffffffffff168152602001908152602001600020600001541015610832576040517f08c379a00000000000000000000000000000000000000000000000000000000081526004018080602001828103825260198152602001807f4572726f723a20496e73756666696369656e742046756e64730000000000000081525060200191505060405180910390fd5b6000831180156108425750600583105b6108b4576040517f08c379a00000000000000000000000000000000000000000000000000000000081526004018080602001828103825260188152602001807f4572726f723a20496e76616c69642053656c656374696f6e000000000000000081525060200191505060405180910390fd5b600060036000858152602001908152602001600020600201548302905082600360008681526020019081526020016000206003016000828254019250508190555060018414156109745782600460008060009054906101000a900473ffffffffffffffffffffffffffffffffffffffff1673ffffffffffffffffffffffffffffffffffffffff1673ffffffffffffffffffffffffffffffffffffffff16815260200190815260200160002060010160008282540192505081905550610af0565b60028414156109f35782600460008060009054906101000a900473ffffffffffffffffffffffffffffffffffffffff1673ffffffffffffffffffffffffffffffffffffffff1673ffffffffffffffffffffffffffffffffffffffff16815260200190815260200160002060020160008282540192505081905550610aef565b6003841415610a725782600460008060009054906101000a900473ffffffffffffffffffffffffffffffffffffffff1673ffffffffffffffffffffffffffffffffffffffff1673ffffffffffffffffffffffffffffffffffffffff16815260200190815260200160002060030160008282540192505081905550610aee565b6004841415610aed5782600460008060009054906101000a900473ffffffffffffffffffffffffffffffffffffffff1673ffffffffffffffffffffffffffffffffffffffff1673ffffffffffffffffffffffffffffffffffffffff168152602001908152602001600020600401600082825401925050819055505b5b5b5b610af981610cfa565b600191505092915050565b600080600154341015610b62576040517f08c379a000000000000000000000000000000000000000000000000000000000815260040180806020018281038252603e815260200180610d6f603e913960400191505060405180910390fd5b336000806101000a81548173ffffffffffffffffffffffffffffffffffffffff021916908373ffffffffffffffffffffffffffffffffffffffff16021790555034600460008060009054906101000a900473ffffffffffffffffffffffffffffffffffffffff1673ffffffffffffffffffffffffffffffffffffffff1673ffffffffffffffffffffffffffffffffffffffff1681526020019081526020016000206000016000828254019250508190555047600460008060009054906101000a900473ffffffffffffffffffffffffffffffffffffffff1673ffffffffffffffffffffffffffffffffffffffff1673ffffffffffffffffffffffffffffffffffffffff16815260200190815260200160002060000154915091509091565b600154600360006001815260200190815260200160002060020181905550600154600360006002815260200190815260200160002060020181905550600154600360006003815260200190815260200160002060020181905550600154600360006004815260200190815260200160002060020181905550565b80600460008060009054906101000a900473ffffffffffffffffffffffffffffffffffffffff1673ffffffffffffffffffffffffffffffffffffffff1673ffffffffffffffffffffffffffffffffffffffff168152602001908152602001600020600001600082825403925050819055505056fe4572726f723a20496e73756666696369656e74204465706f73697420284465706f736974206f662063757272656e7420636f737420726571756972656429a265627a7a723158202020ce8312145065ed203f02140ec822e149e51686d5e8f8672a59339532396e64736f6c63430005100032",
  "source": "pragma solidity >=0.4.22 <0.6.0;\r\n\r\ncontract DMV {\r\n\r\n    //Variable to hold the msg.sender's address\r\n    //Set to payable since we may have to return unused deposited funds after purchase \r\n    address payable public buyer;\r\n    \r\n    //Globally creating a price variable\r\n    //Intended to be used for Beverage price & msg.value requirement\r\n    uint256 Price;\r\n\r\n  //Struct to model a beverage selection\r\n  struct Beverages {\r\n      uint id;\r\n      string name;\r\n      uint256 cost;\r\n      uint lifeTimeCount;\r\n  }\r\n  \r\n  //Struct to hold a user's transaction data\r\n  //Intended per msg.sender\r\n  //It tracks the total counts for each drink\r\n  //It tracks the msg.sender's current purse (balance)\r\n  struct Purchases{\r\n    uint256 purse;\r\n    uint cokePurchaseCount; \r\n    uint pepsiPurchaseCount; \r\n    uint drpPurchaseCount; \r\n    uint dewPurchaseCount;\r\n  }\r\n    \r\n     uint numberOfBeverageOptions = 0;\r\n  \r\n  \r\n    // Mapping for Beverages\r\n    mapping(uint => Beverages) public beverages;\r\n    \r\n    // Mapping for a user (msg.sender)\r\n    mapping(address => Purchases) public userPurchase;\r\n  \r\n   //Constructor function initializes the 4 default drink choices\r\n   constructor () public {\r\n        Price = 1000000000000000; //wei... 0.001 Eth\r\n        buyer = msg.sender;\r\n        addBeverage(\"Coke\");\r\n        addBeverage(\"Pepsi\");\r\n        addBeverage(\"Dr. Pepper\");\r\n        addBeverage(\"Mountain Dew\");\r\n    }\r\n    \r\n    //This function is called by the constructor() and adds a beverage to the beverage mapping\r\n    //The mapping's key is based off of the incrementor\r\n    //Each beverage's cost is currently set to 0.001 ETH (1,000,000,000,000,000 wei)\r\n    //Total purchased count per beverage is initialized to zero\r\n    function addBeverage (string memory _name) private {\r\n        numberOfBeverageOptions++;\r\n        beverages[numberOfBeverageOptions] = Beverages(numberOfBeverageOptions, _name, Price, 0);\r\n    }\r\n    \r\n    //This function gets the current global Price value\r\n    function getPrice () public view returns(uint256){\r\n        return Price;\r\n    }\r\n    \r\n    //This function sets the global Price variable with the supplied value\r\n    function setPrice (uint256 _price) public {\r\n        Price = _price;\r\n        setBevCost();\r\n    }\r\n    \r\n    //This function sets the cost of each beverage with the value of the global Price variable\r\n    function setBevCost() private{\r\n        beverages[1].cost = Price;\r\n        beverages[2].cost = Price;\r\n        beverages[3].cost = Price;\r\n        beverages[4].cost = Price;\r\n    }\r\n    \r\n    \r\n    //This function allows the buyer to deposit funds into the contract\r\n    //The deposit MUST be at least the cost of 1 beverage, which at the start is 0.001ETH\r\n    //Then it sets the individual user's purse variable to the amount deposited \r\n    //We don't want to deposit funds into the contract and have anyone else withdraw from it\r\n    function deposit() public payable returns (uint256, uint256){\r\n        require(\r\n            msg.value >= Price,\r\n            \"Error: Insufficient Deposit (Deposit of current cost required)\"\r\n            );\r\n        buyer = msg.sender;\r\n        \r\n        userPurchase[buyer].purse += msg.value;\r\n        return (address(this).balance, userPurchase[buyer].purse);\r\n    }\r\n    \r\n    \r\n    //subtract the total cost of the current beverage selection from the user's purse\r\n    function calcPurseBalance (uint256 _totalCost) private{\r\n        userPurchase[buyer].purse -= _totalCost;\r\n    }\r\n    \r\n    //This is the main selection function; it takes in the beverage ID (1-4) and the quantity\r\n    //It requires that the msg.sender's avaiable funds be able to cover the quantity\r\n    //If so, it increments the total number of that beverage purchased (for vendor usage in another contract)\r\n    //It increases the purchased count for the msg.sender (for redemption in another contract)\r\n    //And it calculates the purse balance\r\n    function select (uint _beverageID, uint _count) public payable returns (bool){\r\n        buyer = msg.sender;\r\n   \r\n        //requires that buyer's balance (purse) can accomodate current purchase count\r\n        require(\r\n            userPurchase[buyer].purse >= (_count * beverages[_beverageID].cost),\r\n            \"Error: Insufficient Funds\"\r\n            );\r\n        \r\n        require(\r\n            (_beverageID > 0 && _beverageID <5),\r\n            \"Error: Invalid Selection\"\r\n            );\r\n        \r\n        //variable to hold the total cost of the \r\n        uint256 totalCost = _count * beverages[_beverageID].cost;\r\n        \r\n        //increase the total number of Cokes ever ordered \r\n        beverages[_beverageID].lifeTimeCount += _count;\r\n        \r\n        //increase the total number of the respective beverage the buyer has ever ordered\r\n        if(_beverageID == 1){userPurchase[buyer].cokePurchaseCount += _count; }\r\n        else if(_beverageID == 2){userPurchase[buyer].pepsiPurchaseCount += _count;}\r\n        else if(_beverageID == 3){userPurchase[buyer].drpPurchaseCount += _count;}\r\n        else if(_beverageID == 4){userPurchase[buyer].dewPurchaseCount += _count; }\r\n    \r\n        //deduct the purchase from the user's purse\r\n        calcPurseBalance(totalCost);\r\n    \r\n        return true;\r\n    }\r\n    \r\n    //return the current user's purse back to the user's account\r\n    //zero out the current user's purse\r\n    function coinReturn () public payable {\r\n        buyer = msg.sender;\r\n        require(\r\n            userPurchase[buyer].purse > 0,\r\n            \"Error: No funds to return\"\r\n            );\r\n            \r\n        buyer.transfer(userPurchase[buyer].purse);\r\n        userPurchase[buyer].purse -= userPurchase[buyer].purse;\r\n    }  \r\n\r\n        \r\n    \r\n}\r\n",
  "sourcePath": "C:\\Users\\aranb\\Desktop\\DMV dApp\\contracts\\DMV.sol",
  "compiler": {
    "name": "solc",
    "version": "0.5.16+commit.9c3226ce.Emscripten.clang"
  },
  "schemaVersion": "3.4.7",
  "updatedAt": "2022-04-19T16:45:26.853Z",
  "networkType": "ethereum",
  "devdoc": {
    "methods": {}
  },
  "userdoc": {
    "methods": {}
  }
}