{
  "contractName": "Redeem",
  "abi": [
    {
      "inputs": [
        {
          "internalType": "address",
          "name": "_addr",
          "type": "address"
        }
      ],
      "payable": false,
      "stateMutability": "nonpayable",
      "type": "constructor"
    },
    {
      "constant": true,
      "inputs": [],
      "name": "user",
      "outputs": [
        {
          "internalType": "address",
          "name": "",
          "type": "address"
        }
      ],
      "payable": false,
      "stateMutability": "view",
      "type": "function"
    },
    {
      "constant": true,
      "inputs": [
        {
          "internalType": "address",
          "name": "",
          "type": "address"
        }
      ],
      "name": "userPurchased",
      "outputs": [
        {
          "internalType": "uint256",
          "name": "cokePurchaseCount",
          "type": "uint256"
        },
        {
          "internalType": "uint256",
          "name": "pepsiPurchaseCount",
          "type": "uint256"
        },
        {
          "internalType": "uint256",
          "name": "drpPurchaseCount",
          "type": "uint256"
        },
        {
          "internalType": "uint256",
          "name": "dewPurchaseCount",
          "type": "uint256"
        }
      ],
      "payable": false,
      "stateMutability": "view",
      "type": "function"
    },
    {
      "constant": true,
      "inputs": [
        {
          "internalType": "address",
          "name": "",
          "type": "address"
        }
      ],
      "name": "userRedeemable",
      "outputs": [
        {
          "internalType": "uint256",
          "name": "cokePurchaseCount",
          "type": "uint256"
        },
        {
          "internalType": "uint256",
          "name": "pepsiPurchaseCount",
          "type": "uint256"
        },
        {
          "internalType": "uint256",
          "name": "drpPurchaseCount",
          "type": "uint256"
        },
        {
          "internalType": "uint256",
          "name": "dewPurchaseCount",
          "type": "uint256"
        }
      ],
      "payable": false,
      "stateMutability": "view",
      "type": "function"
    },
    {
      "constant": true,
      "inputs": [
        {
          "internalType": "address",
          "name": "",
          "type": "address"
        }
      ],
      "name": "userRedeemed",
      "outputs": [
        {
          "internalType": "uint256",
          "name": "cokePurchaseCount",
          "type": "uint256"
        },
        {
          "internalType": "uint256",
          "name": "pepsiPurchaseCount",
          "type": "uint256"
        },
        {
          "internalType": "uint256",
          "name": "drpPurchaseCount",
          "type": "uint256"
        },
        {
          "internalType": "uint256",
          "name": "dewPurchaseCount",
          "type": "uint256"
        }
      ],
      "payable": false,
      "stateMutability": "view",
      "type": "function"
    },
    {
      "constant": false,
      "inputs": [
        {
          "internalType": "uint256",
          "name": "_coke",
          "type": "uint256"
        },
        {
          "internalType": "uint256",
          "name": "_pepsi",
          "type": "uint256"
        },
        {
          "internalType": "uint256",
          "name": "_drp",
          "type": "uint256"
        },
        {
          "internalType": "uint256",
          "name": "_dew",
          "type": "uint256"
        }
      ],
      "name": "setBevInStockCounts",
      "outputs": [],
      "payable": false,
      "stateMutability": "nonpayable",
      "type": "function"
    },
    {
      "constant": true,
      "inputs": [],
      "name": "getBevInStockCounts",
      "outputs": [
        {
          "internalType": "uint256",
          "name": "",
          "type": "uint256"
        },
        {
          "internalType": "uint256",
          "name": "",
          "type": "uint256"
        },
        {
          "internalType": "uint256",
          "name": "",
          "type": "uint256"
        },
        {
          "internalType": "uint256",
          "name": "",
          "type": "uint256"
        }
      ],
      "payable": false,
      "stateMutability": "view",
      "type": "function"
    },
    {
      "constant": true,
      "inputs": [],
      "name": "returnFlag",
      "outputs": [
        {
          "internalType": "bool",
          "name": "",
          "type": "bool"
        }
      ],
      "payable": false,
      "stateMutability": "view",
      "type": "function"
    },
    {
      "constant": false,
      "inputs": [
        {
          "internalType": "address",
          "name": "_addr",
          "type": "address"
        }
      ],
      "name": "makeExternal",
      "outputs": [],
      "payable": false,
      "stateMutability": "nonpayable",
      "type": "function"
    },
    {
      "constant": false,
      "inputs": [],
      "name": "calcCurrentlyRedeemable",
      "outputs": [],
      "payable": false,
      "stateMutability": "nonpayable",
      "type": "function"
    },
    {
      "constant": false,
      "inputs": [
        {
          "internalType": "uint256",
          "name": "_beverageID",
          "type": "uint256"
        },
        {
          "internalType": "uint256",
          "name": "_quantity",
          "type": "uint256"
        }
      ],
      "name": "redeemBev",
      "outputs": [],
      "payable": false,
      "stateMutability": "nonpayable",
      "type": "function"
    }
  ],
  "bytecode": "0x60806040526000600860006101000a81548160ff02191690831515021790555034801561002b57600080fd5b506040516115233803806115238339818101604052602081101561004e57600080fd5b81019080805190602001909291905050506040518060800160405280600a8152602001600a8152602001600a8152602001600a8152506001600082015181600001556020820151816001015560408201518160020155606082015181600301559050506100c0816100c660201b60201c565b50610125565b80600860016101000a81548173ffffffffffffffffffffffffffffffffffffffff021916908373ffffffffffffffffffffffffffffffffffffffff1602179055506001600860006101000a81548160ff02191690831515021790555050565b6113ef806101346000396000f3fe608060405234801561001057600080fd5b506004361061009e5760003560e01c80639f477d74116100665780639f477d74146101ca578063a67d48dc14610237578063d2b5a006146102a4578063dcc17efa146102f0578063e57341db146103285761009e565b80632ee58943146100a35780634f8632ba1461011057806384ef0f341461015a5780639b441b3c1461017c5780639e0a5a12146101c0575b600080fd5b6100e5600480360360208110156100b957600080fd5b81019080803573ffffffffffffffffffffffffffffffffffffffff16906020019092919050505061035b565b6040518085815260200184815260200183815260200182815260200194505050505060405180910390f35b61011861038b565b604051808273ffffffffffffffffffffffffffffffffffffffff1673ffffffffffffffffffffffffffffffffffffffff16815260200191505060405180910390f35b6101626103b0565b604051808215151515815260200191505060405180910390f35b6101be6004803603602081101561019257600080fd5b81019080803573ffffffffffffffffffffffffffffffffffffffff1690602001909291905050506103c7565b005b6101c8610426565b005b61020c600480360360208110156101e057600080fd5b81019080803573ffffffffffffffffffffffffffffffffffffffff169060200190929190505050610764565b6040518085815260200184815260200183815260200182815260200194505050505060405180910390f35b6102796004803603602081101561024d57600080fd5b81019080803573ffffffffffffffffffffffffffffffffffffffff169060200190929190505050610794565b6040518085815260200184815260200183815260200182815260200194505050505060405180910390f35b6102ee600480360360808110156102ba57600080fd5b81019080803590602001909291908035906020019092919080359060200190929190803590602001909291905050506107c4565b005b6103266004803603604081101561030657600080fd5b810190808035906020019092919080359060200190929190505050610815565b005b610330610e50565b6040518085815260200184815260200183815260200182815260200194505050505060405180910390f35b60056020528060005260406000206000915090508060000154908060010154908060020154908060030154905084565b6000809054906101000a900473ffffffffffffffffffffffffffffffffffffffff1681565b6000600860009054906101000a900460ff16905090565b80600860016101000a81548173ffffffffffffffffffffffffffffffffffffffff021916908373ffffffffffffffffffffffffffffffffffffffff1602179055506001600860006101000a81548160ff02191690831515021790555050565b61042e610e7b565b600660003373ffffffffffffffffffffffffffffffffffffffff1673ffffffffffffffffffffffffffffffffffffffff16815260200190815260200160002060000154600560003373ffffffffffffffffffffffffffffffffffffffff1673ffffffffffffffffffffffffffffffffffffffff1681526020019081526020016000206000015403600760003373ffffffffffffffffffffffffffffffffffffffff1673ffffffffffffffffffffffffffffffffffffffff16815260200190815260200160002060000181905550600660003373ffffffffffffffffffffffffffffffffffffffff1673ffffffffffffffffffffffffffffffffffffffff16815260200190815260200160002060010154600560003373ffffffffffffffffffffffffffffffffffffffff1673ffffffffffffffffffffffffffffffffffffffff1681526020019081526020016000206001015403600760003373ffffffffffffffffffffffffffffffffffffffff1673ffffffffffffffffffffffffffffffffffffffff16815260200190815260200160002060010181905550600660003373ffffffffffffffffffffffffffffffffffffffff1673ffffffffffffffffffffffffffffffffffffffff16815260200190815260200160002060020154600560003373ffffffffffffffffffffffffffffffffffffffff1673ffffffffffffffffffffffffffffffffffffffff1681526020019081526020016000206002015403600760003373ffffffffffffffffffffffffffffffffffffffff1673ffffffffffffffffffffffffffffffffffffffff16815260200190815260200160002060020181905550600660003373ffffffffffffffffffffffffffffffffffffffff1673ffffffffffffffffffffffffffffffffffffffff16815260200190815260200160002060030154600560003373ffffffffffffffffffffffffffffffffffffffff1673ffffffffffffffffffffffffffffffffffffffff1681526020019081526020016000206003015403600760003373ffffffffffffffffffffffffffffffffffffffff1673ffffffffffffffffffffffffffffffffffffffff16815260200190815260200160002060030181905550565b60066020528060005260406000206000915090508060000154908060010154908060020154908060030154905084565b60076020528060005260406000206000915090508060000154908060010154908060020154908060030154905084565b83600160000160008282540192505081905550826001800160008282540192505081905550816001600201600082825401925050819055508060016003016000828254019250508190555050505050565b61081d610426565b60008211801561082d5750600582105b61089f576040517f08c379a00000000000000000000000000000000000000000000000000000000081526004018080602001828103825260188152602001807f4572726f723a20496e76616c69642053656c656374696f6e000000000000000081525060200191505060405180910390fd5b6001821415610a095780600760003373ffffffffffffffffffffffffffffffffffffffff1673ffffffffffffffffffffffffffffffffffffffff168152602001908152602001600020600001541015610943576040517f08c379a00000000000000000000000000000000000000000000000000000000081526004018080602001828103825260358152602001806113866035913960400191505060405180910390fd5b8060016000015410156109a1576040517f08c379a000000000000000000000000000000000000000000000000000000000815260040180806020018281038252603d8152602001806112d7603d913960400191505060405180910390fd5b80600660003373ffffffffffffffffffffffffffffffffffffffff1673ffffffffffffffffffffffffffffffffffffffff1681526020019081526020016000206000016000828254019250508190555080600160000160008282540392505081905550610e44565b6002821415610b715780600760003373ffffffffffffffffffffffffffffffffffffffff1673ffffffffffffffffffffffffffffffffffffffff168152602001908152602001600020600101541015610aad576040517f08c379a00000000000000000000000000000000000000000000000000000000081526004018080602001828103825260368152602001806111a86036913960400191505060405180910390fd5b8060018001541015610b0a576040517f08c379a000000000000000000000000000000000000000000000000000000000815260040180806020018281038252603e81526020018061125e603e913960400191505060405180910390fd5b80600660003373ffffffffffffffffffffffffffffffffffffffff1673ffffffffffffffffffffffffffffffffffffffff16815260200190815260200160002060010160008282540192505081905550806001800160008282540392505081905550610e43565b6003821415610cdb5780600760003373ffffffffffffffffffffffffffffffffffffffff1673ffffffffffffffffffffffffffffffffffffffff168152602001908152602001600020600201541015610c15576040517f08c379a000000000000000000000000000000000000000000000000000000000815260040180806020018281038252603b81526020018061129c603b913960400191505060405180910390fd5b806001600201541015610c73576040517f08c379a00000000000000000000000000000000000000000000000000000000081526004018080602001828103825260438152602001806111de6043913960600191505060405180910390fd5b80600660003373ffffffffffffffffffffffffffffffffffffffff1673ffffffffffffffffffffffffffffffffffffffff1681526020019081526020016000206002016000828254019250508190555080600160020160008282540392505081905550610e42565b6004821415610e415780600760003373ffffffffffffffffffffffffffffffffffffffff1673ffffffffffffffffffffffffffffffffffffffff168152602001908152602001600020600301541015610d7f576040517f08c379a000000000000000000000000000000000000000000000000000000000815260040180806020018281038252603d815260200180611221603d913960400191505060405180910390fd5b806001600301541015610ddd576040517f08c379a00000000000000000000000000000000000000000000000000000000081526004018080602001828103825260458152602001806113416045913960600191505060405180910390fd5b80600660003373ffffffffffffffffffffffffffffffffffffffff1673ffffffffffffffffffffffffffffffffffffffff16815260200190815260200160002060030160008282540192505081905550806001600301600082825403925050819055505b5b5b5b610e4c610426565b5050565b6000806000806001600001546001800154600160020154600160030154935093509350935090919293565b60011515600860009054906101000a900460ff16151514610ee7576040517f08c379a000000000000000000000000000000000000000000000000000000000815260040180806020018281038252602d815260200180611314602d913960400191505060405180910390fd5b6000610ef1611020565b600560003373ffffffffffffffffffffffffffffffffffffffff1673ffffffffffffffffffffffffffffffffffffffff1681526020019081526020016000206000016000600560003373ffffffffffffffffffffffffffffffffffffffff1673ffffffffffffffffffffffffffffffffffffffff1681526020019081526020016000206001016000600560003373ffffffffffffffffffffffffffffffffffffffff1673ffffffffffffffffffffffffffffffffffffffff1681526020019081526020016000206002016000600560003373ffffffffffffffffffffffffffffffffffffffff1673ffffffffffffffffffffffffffffffffffffffff16815260200190815260200160002060030160008891905055879190505586919050558591905055849550505050505050565b600080600080600060011515600860009054906101000a900460ff16151514611094576040517f08c379a000000000000000000000000000000000000000000000000000000000815260040180806020018281038252602d815260200180611314602d913960400191505060405180910390fd5b600860019054906101000a900473ffffffffffffffffffffffffffffffffffffffff1673ffffffffffffffffffffffffffffffffffffffff1663b484eff7336040518263ffffffff1660e01b8152600401808273ffffffffffffffffffffffffffffffffffffffff1673ffffffffffffffffffffffffffffffffffffffff16815260200191505060a06040518083038186803b15801561113357600080fd5b505afa158015611147573d6000803e3d6000fd5b505050506040513d60a081101561115d57600080fd5b81019080805190602001909291908051906020019092919080519060200190929190805190602001909291908051906020019092919050505094509450945094509450909192939456fe4572726f723a20496e73756666696369656e742052656465656d61626c65205065707369204265766572616765205175616e746974794572726f723a20496e73756666696369656e7420417661696c61626c652044722e20506570706572204265766572616765205175616e7469747920496e2d53746f636b4572726f723a20496e73756666696369656e742052656465656d61626c65204d6f756e7461696e20446577204265766572616765205175616e746974794572726f723a20496e73756666696369656e7420417661696c61626c65205065707369204265766572616765205175616e7469747920496e2d53746f636b4572726f723a20496e73756666696369656e742052656465656d61626c652044722e20506570706572204265766572616765205175616e746974794572726f723a20496e73756666696369656e7420417661696c61626c6520436f6b65204265766572616765205175616e7469747920496e2d53746f636b4572726f723a206d616b6545787465726e616c282920686173206e6f7420796574206265656e2063616c6c65644572726f723a20496e73756666696369656e7420417661696c61626c65204d6f756e7461696e20446577204265766572616765205175616e7469747920496e2d53746f636b4572726f723a20496e73756666696369656e742052656465656d61626c6520436f6b65204265766572616765205175616e74697479a265627a7a72315820e77430f7580d5ad06cd4dd1841915b796387b7bf160e520f6ae582ca16b3f9cb64736f6c63430005100032",
  "source": "pragma solidity >=0.4.22 <0.6.0;\n\ncontract Redeem {\n    \n    address public user;\n    \n    //Struct to hold a user's beverage data\n    //Intended per msg.sender\n    //It tracks the counts for each drink\n    //It can be instantiated to hold either total counts redeemed and to-be redeemed\n    struct BevCounts{\n        uint cokePurchaseCount; \n        uint pepsiPurchaseCount; \n        uint drpPurchaseCount; \n        uint dewPurchaseCount;\n    }\n    \n    //Struct intended to track the number of beverages currently in-stock\n    BevCounts bevInStock;\n\n    //Mapping for a user's (msg.sender) lifetime count of beverages redeemed\n    mapping(address => BevCounts) public userPurchased;\n    \n    //Mapping for a user's (msg.sender) lifetime count of beverages redeemed\n    mapping(address => BevCounts) public userRedeemed;\n    \n    //Mapping for a user's (msg.sender) current count of beverages left redeemable\n    mapping(address => BevCounts) public userRedeemable;\n    \n    //Constructor initializes the individual beverage counts at 100\n    constructor(address _addr) public{\n        bevInStock = BevCounts(10,10,10,10);\n        makeExternal(_addr);\n    }\n    \n    //This function increments the current counts of all beverages in-stock by the supplied values\n    function setBevInStockCounts(uint _coke, uint _pepsi, uint _drp, uint _dew) public {\n       bevInStock.cokePurchaseCount += _coke; \n       bevInStock.pepsiPurchaseCount += _pepsi; \n       bevInStock.drpPurchaseCount += _drp; \n       bevInStock.dewPurchaseCount += _dew;\n    }\n    \n    //This function returns the current counts of all beverages in-stock\n    function getBevInStockCounts() public view returns(uint, uint, uint, uint){\n        return (bevInStock.cokePurchaseCount, bevInStock.pepsiPurchaseCount, bevInStock.drpPurchaseCount, bevInStock.dewPurchaseCount);\n    }\n    \n    //Flag is intended to signal when makeExternal() has been called\n    //Default value is false;\n    bool externalFlag = false;\n\n    function returnFlag() public view returns(bool){\n        return externalFlag;\n    }\n    \n    //Instantiate local Beverage contract Definition \n    //This instance will be addressed with the externally deployed Beverage contract\n    //within the makeExternal() function\n    extBeverage externalBev;\n    \n    //Pass in the external Beverage contract address into this function so that \n    //our local Beverage instance can be assigned its address\n    function makeExternal(address _addr) public {\n        externalBev = extBeverage(_addr);\n        externalFlag = true;\n    }\n    \n    //This function is intended to be called after makeExternal has been called.\n    function readUserPurchase() private view returns(uint256 _purse, \n                                               uint _cokePurchaseCount, \n                                               uint _pepsiPurchaseCount, \n                                               uint _drpPurchaseCount, \n                                               uint _dewPurchaseCount) \n                                              { \n                                                  require(\n                                                      externalFlag == true, \n                                                      \"Error: makeExternal() has not yet been called\");\n                                                  //user = msg.sender;\n                                                  return(externalBev.userPurchase(msg.sender)); \n                                               }\n                                                            \n    \n    //This function is suppose to grab the external values and store them locally to be worked upon\n    function userPurchasedCount() private{\n        require(\n            externalFlag == true, \n            \"Error: makeExternal() has not yet been called\");\n\n        //This (_purse) is likely going to be unused. \n        //Needed it since readUserPurchase() returns a tuple and BevCounts doesn't match up exactly \n        uint256 _purse;\n        \n        //initialize the local copy of user's total purchase count\n        (_purse, \n        userPurchased[msg.sender].cokePurchaseCount, \n        userPurchased[msg.sender].pepsiPurchaseCount, \n        userPurchased[msg.sender].drpPurchaseCount,\n        userPurchased[msg.sender].dewPurchaseCount) = readUserPurchase();\n    }\n\n    \n    //This function is meant to calculate the quantaties of redeemable beverages per user\n    //It is currently set to public in case I want to expose a \"refresh\" button on the front-end\n    function calcCurrentlyRedeemable() public {\n         \n        userPurchasedCount();\n    \n        userRedeemable[msg.sender].cokePurchaseCount = \n        userPurchased[msg.sender].cokePurchaseCount - userRedeemed[msg.sender].cokePurchaseCount;\n        \n        userRedeemable[msg.sender].pepsiPurchaseCount = \n        userPurchased[msg.sender].pepsiPurchaseCount - userRedeemed[msg.sender].pepsiPurchaseCount;\n        \n        userRedeemable[msg.sender].drpPurchaseCount = \n        userPurchased[msg.sender].drpPurchaseCount - userRedeemed[msg.sender].drpPurchaseCount;\n        \n        userRedeemable[msg.sender].dewPurchaseCount = \n        userPurchased[msg.sender].dewPurchaseCount - userRedeemed[msg.sender].dewPurchaseCount;\n       \n       }\n\n    \n    //function to redeem\n    function redeemBev(uint _beverageID, uint _quantity) public {\n        \n        calcCurrentlyRedeemable();\n        \n        require(\n            (_beverageID > 0 && _beverageID <5),\n            \"Error: Invalid Selection\"\n            );\n            \n        if(_beverageID == 1){\n            require(\n                (userRedeemable[msg.sender].cokePurchaseCount >= _quantity),\n                \"Error: Insufficient Redeemable Coke Beverage Quantity\"\n            );\n            require(\n                (bevInStock.cokePurchaseCount >= _quantity),\n                \"Error: Insufficient Available Coke Beverage Quantity In-Stock\"\n            );\n            \n            userRedeemed[msg.sender].cokePurchaseCount += _quantity;\n            bevInStock.cokePurchaseCount -= _quantity;\n            \n        }\n        else if(_beverageID == 2){\n            require(\n                (userRedeemable[msg.sender].pepsiPurchaseCount >= _quantity),\n                \"Error: Insufficient Redeemable Pepsi Beverage Quantity\"\n            );\n            require(\n                (bevInStock.pepsiPurchaseCount >= _quantity),\n                \"Error: Insufficient Available Pepsi Beverage Quantity In-Stock\"\n            );\n            \n            userRedeemed[msg.sender].pepsiPurchaseCount += _quantity;\n            bevInStock.pepsiPurchaseCount -= _quantity;\n        }\n        else if(_beverageID == 3){\n            require(\n                (userRedeemable[msg.sender].drpPurchaseCount >= _quantity),\n                \"Error: Insufficient Redeemable Dr. Pepper Beverage Quantity\"\n            );\n            require(\n                (bevInStock.drpPurchaseCount >= _quantity),\n                \"Error: Insufficient Available Dr. Pepper Beverage Quantity In-Stock\"\n            );\n            \n            userRedeemed[msg.sender].drpPurchaseCount += _quantity;\n            bevInStock.drpPurchaseCount -= _quantity;\n        }\n        else if(_beverageID == 4){\n            require(\n                (userRedeemable[msg.sender].dewPurchaseCount >= _quantity),\n                \"Error: Insufficient Redeemable Mountain Dew Beverage Quantity\"\n            );\n            require(\n                (bevInStock.dewPurchaseCount >= _quantity),\n                \"Error: Insufficient Available Mountain Dew Beverage Quantity In-Stock\"\n            );\n            \n            userRedeemed[msg.sender].dewPurchaseCount += _quantity;\n            bevInStock.dewPurchaseCount -= _quantity;\n        }\n        \n        //Additional call at the end to ensure local counts are up-to-date after transaction\n        calcCurrentlyRedeemable();\n        \n    }\n    \n}\n\n\ncontract extBeverage {\n    \n    //These declarations mirror those in Beverage.sol so that the remote data may be accessed here\n    //We are essentially creating an interface to Beverage.sol\n    \n    //Struct to hold a user's transaction data\n    //Intended per msg.sender\n    //It tracks the total counts for each drink\n    //It tracks the msg.sender's current purse (balance)\n    struct Purchases{\n        uint256 purse;\n        uint cokePurchaseCount; \n        uint pepsiPurchaseCount; \n        uint drpPurchaseCount; \n        uint dewPurchaseCount;\n    }\n    \n    // Mapping for a user (msg.sender)\n    mapping(address => Purchases) public userPurchase;\n}\n\n\n\n\n",
  "sourcePath": "C:\\Users\\aranb\\Desktop\\DaPP Project Files\\contracts\\Redeem.sol",
  "compiler": {
    "name": "solc",
    "version": "0.5.16+commit.9c3226ce.Emscripten.clang"
  },
  "schemaVersion": "3.4.7",
  "updatedAt": "2022-04-17T22:59:52.570Z",
  "networkType": "ethereum",
  "devdoc": {
    "methods": {}
  },
  "userdoc": {
    "methods": {}
  }
}