{
  "contractName": "Restock",
  "abi": [
    {
      "inputs": [
        {
          "internalType": "address",
          "name": "_addr1",
          "type": "address"
        },
        {
          "internalType": "address",
          "name": "_addr2",
          "type": "address"
        }
      ],
      "payable": false,
      "stateMutability": "nonpayable",
      "type": "constructor"
    },
    {
      "constant": true,
      "inputs": [],
      "name": "coke",
      "outputs": [
        {
          "internalType": "uint256",
          "name": "",
          "type": "uint256"
        }
      ],
      "payable": false,
      "stateMutability": "view",
      "type": "function"
    },
    {
      "constant": true,
      "inputs": [],
      "name": "dew",
      "outputs": [
        {
          "internalType": "uint256",
          "name": "",
          "type": "uint256"
        }
      ],
      "payable": false,
      "stateMutability": "view",
      "type": "function"
    },
    {
      "constant": true,
      "inputs": [],
      "name": "drp",
      "outputs": [
        {
          "internalType": "uint256",
          "name": "",
          "type": "uint256"
        }
      ],
      "payable": false,
      "stateMutability": "view",
      "type": "function"
    },
    {
      "constant": true,
      "inputs": [],
      "name": "pepsi",
      "outputs": [
        {
          "internalType": "uint256",
          "name": "",
          "type": "uint256"
        }
      ],
      "payable": false,
      "stateMutability": "view",
      "type": "function"
    },
    {
      "constant": false,
      "inputs": [
        {
          "internalType": "address",
          "name": "_addr",
          "type": "address"
        }
      ],
      "name": "makeExternalRedeem",
      "outputs": [],
      "payable": false,
      "stateMutability": "nonpayable",
      "type": "function"
    },
    {
      "constant": false,
      "inputs": [
        {
          "internalType": "address",
          "name": "_addr",
          "type": "address"
        }
      ],
      "name": "makeExternalBeverage",
      "outputs": [],
      "payable": false,
      "stateMutability": "nonpayable",
      "type": "function"
    },
    {
      "constant": false,
      "inputs": [],
      "name": "getInStock",
      "outputs": [
        {
          "internalType": "uint256",
          "name": "",
          "type": "uint256"
        },
        {
          "internalType": "uint256",
          "name": "",
          "type": "uint256"
        },
        {
          "internalType": "uint256",
          "name": "",
          "type": "uint256"
        },
        {
          "internalType": "uint256",
          "name": "",
          "type": "uint256"
        }
      ],
      "payable": false,
      "stateMutability": "nonpayable",
      "type": "function"
    },
    {
      "constant": false,
      "inputs": [
        {
          "internalType": "uint256",
          "name": "_coke",
          "type": "uint256"
        },
        {
          "internalType": "uint256",
          "name": "_pepsi",
          "type": "uint256"
        },
        {
          "internalType": "uint256",
          "name": "_drp",
          "type": "uint256"
        },
        {
          "internalType": "uint256",
          "name": "_dew",
          "type": "uint256"
        }
      ],
      "name": "restock",
      "outputs": [],
      "payable": false,
      "stateMutability": "nonpayable",
      "type": "function"
    },
    {
      "constant": true,
      "inputs": [],
      "name": "getGlobalPrice",
      "outputs": [
        {
          "internalType": "uint256",
          "name": "",
          "type": "uint256"
        }
      ],
      "payable": false,
      "stateMutability": "view",
      "type": "function"
    },
    {
      "constant": false,
      "inputs": [
        {
          "internalType": "uint256",
          "name": "_price",
          "type": "uint256"
        }
      ],
      "name": "setGlobalPriceUpdateCost",
      "outputs": [],
      "payable": false,
      "stateMutability": "nonpayable",
      "type": "function"
    }
  ],
  "bytecode": "0x608060405260008060006101000a81548160ff02191690831515021790555060008060016101000a81548160ff02191690831515021790555034801561004457600080fd5b50604051610a21380380610a218339818101604052604081101561006757600080fd5b81019080805190602001909291908051906020019092919050505060006002819055506000600381905550600060048190555060006005819055506100b1826100c760201b60201c565b6100c08161012560201b60201c565b5050610184565b80600060026101000a81548173ffffffffffffffffffffffffffffffffffffffff021916908373ffffffffffffffffffffffffffffffffffffffff16021790555060016000806101000a81548160ff02191690831515021790555050565b80600160006101000a81548173ffffffffffffffffffffffffffffffffffffffff021916908373ffffffffffffffffffffffffffffffffffffffff1602179055506001600060016101000a81548160ff02191690831515021790555050565b61088e806101936000396000f3fe608060405234801561001057600080fd5b506004361061009e5760003560e01c80636701889011610066578063670188901461018d5780638aa46585146101ab578063a6f9775c146101ef578063a76a09a71461021d578063e638ebe61461023b5761009e565b8063359f6e62146100a35780633f7e9161146100ef5780634ffbcc231461010d5780635244ed711461012b578063625300f314610149575b600080fd5b6100ed600480360360808110156100b957600080fd5b810190808035906020019092919080359060200190929190803590602001909291908035906020019092919050505061026e565b005b6100f7610384565b6040518082815260200191505060405180910390f35b61011561038a565b6040518082815260200191505060405180910390f35b610133610390565b6040518082815260200191505060405180910390f35b61018b6004803603602081101561015f57600080fd5b81019080803573ffffffffffffffffffffffffffffffffffffffff1690602001909291905050506104a6565b005b610195610505565b6040518082815260200191505060405180910390f35b6101ed600480360360208110156101c157600080fd5b81019080803573ffffffffffffffffffffffffffffffffffffffff16906020019092919050505061050b565b005b61021b6004803603602081101561020557600080fd5b8101908080359060200190929190505050610569565b005b610225610665565b6040518082815260200191505060405180910390f35b61024361066b565b6040518085815260200184815260200183815260200182815260200194505050505060405180910390f35b600115156000809054906101000a900460ff161515146102d9576040517f08c379a00000000000000000000000000000000000000000000000000000000081526004018080602001828103825260248152602001806107e06024913960400191505060405180910390fd5b600060029054906101000a900473ffffffffffffffffffffffffffffffffffffffff1673ffffffffffffffffffffffffffffffffffffffff1663d2b5a006858585856040518563ffffffff1660e01b815260040180858152602001848152602001838152602001828152602001945050505050600060405180830381600087803b15801561036657600080fd5b505af115801561037a573d6000803e3d6000fd5b5050505050505050565b60025481565b60035481565b600060011515600060019054906101000a900460ff161515146103fe576040517f08c379a000000000000000000000000000000000000000000000000000000000815260040180806020018281038252602c815260200180610804602c913960400191505060405180910390fd5b600160009054906101000a900473ffffffffffffffffffffffffffffffffffffffff1673ffffffffffffffffffffffffffffffffffffffff166398d5fdca6040518163ffffffff1660e01b815260040160206040518083038186803b15801561046657600080fd5b505afa15801561047a573d6000803e3d6000fd5b505050506040513d602081101561049057600080fd5b8101908080519060200190929190505050905090565b80600160006101000a81548173ffffffffffffffffffffffffffffffffffffffff021916908373ffffffffffffffffffffffffffffffffffffffff1602179055506001600060016101000a81548160ff02191690831515021790555050565b60045481565b80600060026101000a81548173ffffffffffffffffffffffffffffffffffffffff021916908373ffffffffffffffffffffffffffffffffffffffff16021790555060016000806101000a81548160ff02191690831515021790555050565b60011515600060019054906101000a900460ff161515146105d5576040517f08c379a000000000000000000000000000000000000000000000000000000000815260040180806020018281038252602c815260200180610804602c913960400191505060405180910390fd5b600160009054906101000a900473ffffffffffffffffffffffffffffffffffffffff1673ffffffffffffffffffffffffffffffffffffffff166391b7f5ed826040518263ffffffff1660e01b815260040180828152602001915050600060405180830381600087803b15801561064a57600080fd5b505af115801561065e573d6000803e3d6000fd5b5050505050565b60055481565b600080600080600115156000809054906101000a900460ff161515146106dc576040517f08c379a000000000000000000000000000000000000000000000000000000000815260040180806020018281038252602a815260200180610830602a913960400191505060405180910390fd5b600060029054906101000a900473ffffffffffffffffffffffffffffffffffffffff1673ffffffffffffffffffffffffffffffffffffffff1663e57341db6040518163ffffffff1660e01b815260040160806040518083038186803b15801561074457600080fd5b505afa158015610758573d6000803e3d6000fd5b505050506040513d608081101561076e57600080fd5b81019080805190602001909291908051906020019092919080519060200190929190805190602001909291905050506002600060036000600460006005600088919050558791905055869190505585919050555050505060025460035460045460055493509350935093509091929356fe4572726f723a206d616b6545787465726e616c2829206e6f74207965742063616c6c65644572726f723a206d616b6545787465726e616c42657665726167652829206e6f74207965742063616c6c65644572726f723a206d616b6545787465726e616c52656465656d2829206e6f74207965742063616c6c6564a265627a7a72315820f885f94156eef9c3f3c0830f1f2cf7bfa1b2bc9c838cb5cb7f9a3535ad2a0cda64736f6c63430005100032",
  "source": "pragma solidity >=0.4.22 <0.6.0;\n\ncontract Restock {\n    \n    bool externalFlag = false;\n    bool externalFlag2 = false;\n    \n    //Instantiate local Redeem contract definition \n    //This instance will be addressed with the externally deployed Redeem.sol contract's address\n    //within the makeExternalRedeem() function\n    RedeemIFace externalRed;\n    \n    //Pass in the external Redeem contract address into this function so that \n    //our local Redeem instance can be assigned its address\n    //then set the flag to TRUE to signify the connection\n    function makeExternalRedeem(address _addr) public {\n        externalRed = RedeemIFace(_addr);\n        externalFlag = true;\n    }\n    \n    //Instantiate local Beverage contract definition \n    //This instance will be addressed with the externally deployed Beverage.sol contract's address\n    //within the makeExternalBeverage() function\n    BeverageIFace externalBev;\n    \n    //Pass in the external Beverage contract address into this function so that \n    //our local Beverage instance can be assigned its address\n    //then set the flag to TRUE to signify the connection\n    function makeExternalBeverage(address _addr) public {\n        externalBev = BeverageIFace(_addr);\n        externalFlag2 = true;\n    }\n    \n    //Four globally declared unsigned ints to hold the values of In-Stock #s from the external Redeem contract \n    uint public coke;\n    uint public pepsi;\n    uint public drp;\n    uint public dew;\n\n        \n    //Constructor initializes these values to 0 \n    //calls the makeExternal.. functions using passed in addresses\n    //this only works if the Truffle Deployer is properly configured to pass in the correct addresses   \n    constructor(address _addr1, address _addr2) public{\n        coke = 0;\n        pepsi = 0;\n        drp = 0;\n        dew = 0; \n\n        makeExternalRedeem(_addr1);\n        makeExternalBeverage(_addr2); \n    }\n    \n    //Retrieves the current In-Stock data for each beverage from the external Redeem contract \n    function getInStock() public returns(uint, uint, uint, uint){\n        require( externalFlag == true, \"Error: makeExternalRedeem() not yet called\" );\n        (coke, pepsi, drp, dew) = externalRed.getBevInStockCounts();\n        return (coke, pepsi, drp, dew);\n    }\n    \n    //Increments the In-Stock beverages from the external Redeem contract with the supplied params\n    function restock(uint _coke, uint _pepsi, uint _drp, uint _dew) public{\n        require( externalFlag == true, \"Error: makeExternal() not yet called\" );\n        externalRed.setBevInStockCounts(_coke, _pepsi, _drp, _dew);\n    }\n    \n    //Retrieves the current Price variable set globally in the external Beverage.sol contract \n    function getGlobalPrice() public view returns(uint256){\n        require( externalFlag2 == true, \"Error: makeExternalBeverage() not yet called\" );\n        return externalBev.getPrice();\n    }\n    \n    //Sets the Price variable defined globally in the external Beverage.sol contract\n    //It will also change the cost of each beverage to reflect the new Price\n    function setGlobalPriceUpdateCost(uint256 _price) public{\n        require( externalFlag2 == true, \"Error: makeExternalBeverage() not yet called\" );\n        externalBev.setPrice(_price);\n    }\n}\n\ncontract RedeemIFace {\n    //These declarations mirror those in Redeem.sol so that the remote data may be accessed here\n    //We are essentially creating an interface to Redeem.sol\n    \n    //This function increments the current counts of all beverages in-stock by the supplied values\n    function setBevInStockCounts(uint _coke, uint _pepsi, uint _drp, uint _dew) public {}\n    \n    //This function returns the current counts of all beverages in-stock\n    function getBevInStockCounts() public view returns(uint, uint, uint, uint){}\n}\n\ncontract BeverageIFace {\n    //This function gets the current global Price value in Beverage.sol\n    function getPrice () public view returns(uint256){}\n    \n    //This function sets the global Price variable with the supplied value\n    function setPrice (uint256 _price) public {}\n}",
  "sourcePath": "C:\\Users\\aranb\\Desktop\\DaPP Project Files\\contracts\\Restock.sol",
  "compiler": {
    "name": "solc",
    "version": "0.5.16+commit.9c3226ce.Emscripten.clang"
  },
  "schemaVersion": "3.4.7",
  "updatedAt": "2022-04-17T22:59:52.581Z",
  "networkType": "ethereum",
  "devdoc": {
    "methods": {}
  },
  "userdoc": {
    "methods": {}
  }
}